{
  "abi": [
    {
      "inputs": [
        {
          "internalType": "contract IBCHandler",
          "name": "_ibcHandler",
          "type": "address"
        },
        {
          "internalType": "uint64",
          "name": "_revisionNumber",
          "type": "uint64"
        }
      ],
      "stateMutability": "nonpayable",
      "type": "constructor"
    },
    {
      "anonymous": false,
      "inputs": [
        {
          "indexed": false,
          "internalType": "string",
          "name": "denom",
          "type": "string"
        },
        {
          "indexed": false,
          "internalType": "address",
          "name": "token",
          "type": "address"
        }
      ],
      "name": "DenomCreated",
      "type": "event"
    },
    {
      "anonymous": false,
      "inputs": [
        {
          "indexed": false,
          "internalType": "string",
          "name": "sender",
          "type": "string"
        },
        {
          "indexed": false,
          "internalType": "address",
          "name": "receiver",
          "type": "address"
        },
        {
          "indexed": false,
          "internalType": "string",
          "name": "denom",
          "type": "string"
        },
        {
          "indexed": false,
          "internalType": "address",
          "name": "token",
          "type": "address"
        },
        {
          "indexed": false,
          "internalType": "uint256",
          "name": "amount",
          "type": "uint256"
        }
      ],
      "name": "Received",
      "type": "event"
    },
    {
      "anonymous": false,
      "inputs": [
        {
          "indexed": false,
          "internalType": "address",
          "name": "sender",
          "type": "address"
        },
        {
          "indexed": false,
          "internalType": "string",
          "name": "receiver",
          "type": "string"
        },
        {
          "indexed": false,
          "internalType": "string",
          "name": "denom",
          "type": "string"
        },
        {
          "indexed": false,
          "internalType": "address",
          "name": "token",
          "type": "address"
        },
        {
          "indexed": false,
          "internalType": "uint256",
          "name": "amount",
          "type": "uint256"
        }
      ],
      "name": "Sent",
      "type": "event"
    },
    {
      "inputs": [
        {
          "internalType": "address",
          "name": "",
          "type": "address"
        }
      ],
      "name": "addressToDenom",
      "outputs": [
        {
          "internalType": "string",
          "name": "",
          "type": "string"
        }
      ],
      "stateMutability": "view",
      "type": "function"
    },
    {
      "inputs": [
        {
          "internalType": "string",
          "name": "",
          "type": "string"
        },
        {
          "internalType": "string",
          "name": "",
          "type": "string"
        }
      ],
      "name": "counterpartyEndpoints",
      "outputs": [
        {
          "internalType": "string",
          "name": "port_id",
          "type": "string"
        },
        {
          "internalType": "string",
          "name": "channel_id",
          "type": "string"
        }
      ],
      "stateMutability": "view",
      "type": "function"
    },
    {
      "inputs": [
        {
          "internalType": "string",
          "name": "",
          "type": "string"
        }
      ],
      "name": "denomToAddress",
      "outputs": [
        {
          "internalType": "address",
          "name": "",
          "type": "address"
        }
      ],
      "stateMutability": "view",
      "type": "function"
    },
    {
      "inputs": [],
      "name": "ibcAddress",
      "outputs": [
        {
          "internalType": "address",
          "name": "",
          "type": "address"
        }
      ],
      "stateMutability": "view",
      "type": "function"
    },
    {
      "inputs": [
        {
          "internalType": "string",
          "name": "",
          "type": "string"
        },
        {
          "internalType": "string",
          "name": "",
          "type": "string"
        },
        {
          "internalType": "address",
          "name": "",
          "type": "address"
        }
      ],
      "name": "inFlight",
      "outputs": [
        {
          "internalType": "uint256",
          "name": "",
          "type": "uint256"
        }
      ],
      "stateMutability": "view",
      "type": "function"
    },
    {
      "inputs": [
        {
          "internalType": "string",
          "name": "portId",
          "type": "string"
        },
        {
          "internalType": "string",
          "name": "channelId",
          "type": "string"
        }
      ],
      "name": "makeDenomPrefix",
      "outputs": [
        {
          "internalType": "string",
          "name": "",
          "type": "string"
        }
      ],
      "stateMutability": "view",
      "type": "function"
    },
    {
      "inputs": [
        {
          "internalType": "string",
          "name": "portId",
          "type": "string"
        },
        {
          "internalType": "string",
          "name": "channelId",
          "type": "string"
        },
        {
          "internalType": "string",
          "name": "denom",
          "type": "string"
        }
      ],
      "name": "makeForeignDenom",
      "outputs": [
        {
          "internalType": "string",
          "name": "",
          "type": "string"
        }
      ],
      "stateMutability": "view",
      "type": "function"
    },
    {
      "inputs": [
        {
          "components": [
            {
              "internalType": "uint64",
              "name": "sequence",
              "type": "uint64"
            },
            {
              "internalType": "string",
              "name": "source_port",
              "type": "string"
            },
            {
              "internalType": "string",
              "name": "source_channel",
              "type": "string"
            },
            {
              "internalType": "string",
              "name": "destination_port",
              "type": "string"
            },
            {
              "internalType": "string",
              "name": "destination_channel",
              "type": "string"
            },
            {
              "internalType": "bytes",
              "name": "data",
              "type": "bytes"
            },
            {
              "components": [
                {
                  "internalType": "uint64",
                  "name": "revision_number",
                  "type": "uint64"
                },
                {
                  "internalType": "uint64",
                  "name": "revision_height",
                  "type": "uint64"
                }
              ],
              "internalType": "struct IbcCoreClientV1Height.Data",
              "name": "timeout_height",
              "type": "tuple"
            },
            {
              "internalType": "uint64",
              "name": "timeout_timestamp",
              "type": "uint64"
            }
          ],
          "internalType": "struct IbcCoreChannelV1Packet.Data",
          "name": "ibcPacket",
          "type": "tuple"
        },
        {
          "internalType": "bytes",
          "name": "acknowledgement",
          "type": "bytes"
        },
        {
          "internalType": "address",
          "name": "_relayer",
          "type": "address"
        }
      ],
      "name": "onAcknowledgementPacket",
      "outputs": [],
      "stateMutability": "nonpayable",
      "type": "function"
    },
    {
      "inputs": [
        {
          "internalType": "string",
          "name": "_portId",
          "type": "string"
        },
        {
          "internalType": "string",
          "name": "_channelId",
          "type": "string"
        }
      ],
      "name": "onChanCloseConfirm",
      "outputs": [],
      "stateMutability": "nonpayable",
      "type": "function"
    },
    {
      "inputs": [
        {
          "internalType": "string",
          "name": "_portId",
          "type": "string"
        },
        {
          "internalType": "string",
          "name": "_channelId",
          "type": "string"
        }
      ],
      "name": "onChanCloseInit",
      "outputs": [],
      "stateMutability": "nonpayable",
      "type": "function"
    },
    {
      "inputs": [
        {
          "internalType": "string",
          "name": "_portId",
          "type": "string"
        },
        {
          "internalType": "string",
          "name": "_channelId",
          "type": "string"
        },
        {
          "internalType": "string",
          "name": "_counterpartyVersion",
          "type": "string"
        }
      ],
      "name": "onChanOpenAck",
      "outputs": [],
      "stateMutability": "nonpayable",
      "type": "function"
    },
    {
      "inputs": [
        {
          "internalType": "string",
          "name": "_portId",
          "type": "string"
        },
        {
          "internalType": "string",
          "name": "_channelId",
          "type": "string"
        }
      ],
      "name": "onChanOpenConfirm",
      "outputs": [],
      "stateMutability": "nonpayable",
      "type": "function"
    },
    {
      "inputs": [
        {
          "internalType": "enum IbcCoreChannelV1GlobalEnums.Order",
          "name": "_order",
          "type": "uint8"
        },
        {
          "internalType": "string[]",
          "name": "_connectionHops",
          "type": "string[]"
        },
        {
          "internalType": "string",
          "name": "portId",
          "type": "string"
        },
        {
          "internalType": "string",
          "name": "channelId",
          "type": "string"
        },
        {
          "components": [
            {
              "internalType": "string",
              "name": "port_id",
              "type": "string"
            },
            {
              "internalType": "string",
              "name": "channel_id",
              "type": "string"
            }
          ],
          "internalType": "struct IbcCoreChannelV1Counterparty.Data",
          "name": "counterpartyEndpoint",
          "type": "tuple"
        },
        {
          "internalType": "string",
          "name": "_version",
          "type": "string"
        }
      ],
      "name": "onChanOpenInit",
      "outputs": [],
      "stateMutability": "nonpayable",
      "type": "function"
    },
    {
      "inputs": [
        {
          "internalType": "enum IbcCoreChannelV1GlobalEnums.Order",
          "name": "_order",
          "type": "uint8"
        },
        {
          "internalType": "string[]",
          "name": "_connectionHops",
          "type": "string[]"
        },
        {
          "internalType": "string",
          "name": "portId",
          "type": "string"
        },
        {
          "internalType": "string",
          "name": "channelId",
          "type": "string"
        },
        {
          "components": [
            {
              "internalType": "string",
              "name": "port_id",
              "type": "string"
            },
            {
              "internalType": "string",
              "name": "channel_id",
              "type": "string"
            }
          ],
          "internalType": "struct IbcCoreChannelV1Counterparty.Data",
          "name": "counterpartyEndpoint",
          "type": "tuple"
        },
        {
          "internalType": "string",
          "name": "_version",
          "type": "string"
        },
        {
          "internalType": "string",
          "name": "_counterpartyVersion",
          "type": "string"
        }
      ],
      "name": "onChanOpenTry",
      "outputs": [],
      "stateMutability": "nonpayable",
      "type": "function"
    },
    {
      "inputs": [
        {
          "components": [
            {
              "internalType": "uint64",
              "name": "sequence",
              "type": "uint64"
            },
            {
              "internalType": "string",
              "name": "source_port",
              "type": "string"
            },
            {
              "internalType": "string",
              "name": "source_channel",
              "type": "string"
            },
            {
              "internalType": "string",
              "name": "destination_port",
              "type": "string"
            },
            {
              "internalType": "string",
              "name": "destination_channel",
              "type": "string"
            },
            {
              "internalType": "bytes",
              "name": "data",
              "type": "bytes"
            },
            {
              "components": [
                {
                  "internalType": "uint64",
                  "name": "revision_number",
                  "type": "uint64"
                },
                {
                  "internalType": "uint64",
                  "name": "revision_height",
                  "type": "uint64"
                }
              ],
              "internalType": "struct IbcCoreClientV1Height.Data",
              "name": "timeout_height",
              "type": "tuple"
            },
            {
              "internalType": "uint64",
              "name": "timeout_timestamp",
              "type": "uint64"
            }
          ],
          "internalType": "struct IbcCoreChannelV1Packet.Data",
          "name": "ibcPacket",
          "type": "tuple"
        },
        {
          "internalType": "address",
          "name": "relayer",
          "type": "address"
        }
      ],
      "name": "onRecvPacket",
      "outputs": [
        {
          "internalType": "bytes",
          "name": "acknowledgement",
          "type": "bytes"
        }
      ],
      "stateMutability": "nonpayable",
      "type": "function"
    },
    {
      "inputs": [
        {
          "components": [
            {
              "internalType": "uint64",
              "name": "sequence",
              "type": "uint64"
            },
            {
              "internalType": "string",
              "name": "source_port",
              "type": "string"
            },
            {
              "internalType": "string",
              "name": "source_channel",
              "type": "string"
            },
            {
              "internalType": "string",
              "name": "destination_port",
              "type": "string"
            },
            {
              "internalType": "string",
              "name": "destination_channel",
              "type": "string"
            },
            {
              "internalType": "bytes",
              "name": "data",
              "type": "bytes"
            },
            {
              "components": [
                {
                  "internalType": "uint64",
                  "name": "revision_number",
                  "type": "uint64"
                },
                {
                  "internalType": "uint64",
                  "name": "revision_height",
                  "type": "uint64"
                }
              ],
              "internalType": "struct IbcCoreClientV1Height.Data",
              "name": "timeout_height",
              "type": "tuple"
            },
            {
              "internalType": "uint64",
              "name": "timeout_timestamp",
              "type": "uint64"
            }
          ],
          "internalType": "struct IbcCoreChannelV1Packet.Data",
          "name": "ibcPacket",
          "type": "tuple"
        },
        {
          "internalType": "address",
          "name": "relayer",
          "type": "address"
        }
      ],
      "name": "onRecvPacketProcessing",
      "outputs": [],
      "stateMutability": "nonpayable",
      "type": "function"
    },
    {
      "inputs": [
        {
          "components": [
            {
              "internalType": "uint64",
              "name": "sequence",
              "type": "uint64"
            },
            {
              "internalType": "string",
              "name": "source_port",
              "type": "string"
            },
            {
              "internalType": "string",
              "name": "source_channel",
              "type": "string"
            },
            {
              "internalType": "string",
              "name": "destination_port",
              "type": "string"
            },
            {
              "internalType": "string",
              "name": "destination_channel",
              "type": "string"
            },
            {
              "internalType": "bytes",
              "name": "data",
              "type": "bytes"
            },
            {
              "components": [
                {
                  "internalType": "uint64",
                  "name": "revision_number",
                  "type": "uint64"
                },
                {
                  "internalType": "uint64",
                  "name": "revision_height",
                  "type": "uint64"
                }
              ],
              "internalType": "struct IbcCoreClientV1Height.Data",
              "name": "timeout_height",
              "type": "tuple"
            },
            {
              "internalType": "uint64",
              "name": "timeout_timestamp",
              "type": "uint64"
            }
          ],
          "internalType": "struct IbcCoreChannelV1Packet.Data",
          "name": "ibcPacket",
          "type": "tuple"
        },
        {
          "internalType": "address",
          "name": "_relayer",
          "type": "address"
        }
      ],
      "name": "onTimeoutPacket",
      "outputs": [],
      "stateMutability": "nonpayable",
      "type": "function"
    },
    {
      "inputs": [
        {
          "internalType": "string",
          "name": "",
          "type": "string"
        },
        {
          "internalType": "string",
          "name": "",
          "type": "string"
        },
        {
          "internalType": "address",
          "name": "",
          "type": "address"
        }
      ],
      "name": "outstanding",
      "outputs": [
        {
          "internalType": "uint256",
          "name": "",
          "type": "uint256"
        }
      ],
      "stateMutability": "view",
      "type": "function"
    },
    {
      "inputs": [
        {
          "internalType": "string",
          "name": "portId",
          "type": "string"
        },
        {
          "internalType": "string",
          "name": "channelId",
          "type": "string"
        },
        {
          "internalType": "string",
          "name": "receiver",
          "type": "string"
        },
        {
          "components": [
            {
              "internalType": "address",
              "name": "denom",
              "type": "address"
            },
            {
              "internalType": "uint128",
              "name": "amount",
              "type": "uint128"
            }
          ],
          "internalType": "struct LocalToken[]",
          "name": "tokens",
          "type": "tuple[]"
        },
        {
          "internalType": "uint64",
          "name": "counterpartyTimeoutRevisionNumber",
          "type": "uint64"
        },
        {
          "internalType": "uint64",
          "name": "counterpartyTimeoutRevisionHeight",
          "type": "uint64"
        }
      ],
      "name": "send",
      "outputs": [],
      "stateMutability": "nonpayable",
      "type": "function"
    }
  ],
  "bytecode": {
    "object": "0x60c06040908082523462000108575080516001600160401b0390601f62004f3538819003918201601f191683019184831184841017620000f25780849287948552833981010312620000a3578051906001600160a01b03821682036200009e576020015191821682036200009e5760805260a05251614ddf9081620001568239608051818181610e0801528181611d25015261342c015260a051815050f35b600080fd5b825162461bcd60e51b815260206004820152602260248201527f414249206465636f64696e673a207475706c65206461746120746f6f2073686f6044820152611c9d60f21b6064820152608490fd5b634e487b7160e01b600052604160045260246000fd5b62461bcd60e51b815260206004820152602260248201527f45746865722073656e7420746f206e6f6e2d70617961626c652066756e63746960448201526137b760f11b6064820152608490fdfe608060405260043610620018125760003560e01c806306d8af32146200015c5780632301c6f514620001565780634020d0ed146200015057806344dd9638146200014a5780634942d1ac146200014457806351c78ced146200013e57806352c7157d14620001385780635e6858691462000132578063696a9bf4146200012c578063908fc15a146200012657806395469df81462000120578063981389f2146200011a578063a113e4111462000114578063ace07ee9146200010e578063bd950f891462000108578063d7c83be51462000102578063e74a1ac214620000fc578063ef4776d214620000fc5763fb8b532e03620018125762001670565b620015e7565b620015bf565b62001108565b620010e8565b620010c9565b62000fa5565b62000f53565b62000ea6565b62000dd9565b62000d4e565b62000cb2565b62000c55565b62000b7e565b62000abe565b620008f9565b620008ba565b62000747565b608460405162461bcd60e51b815260206004820152602260248201527f45746865722073656e7420746f206e6f6e2d70617961626c652066756e63746960448201527f6f6e0000000000000000000000000000000000000000000000000000000000006064820152fd5b608460405162461bcd60e51b815260206004820152602260248201527f414249206465636f64696e673a207475706c65206461746120746f6f2073686f60448201527f72740000000000000000000000000000000000000000000000000000000000006064820152fd5b608460405162461bcd60e51b815260206004820152602260248201527f414249206465636f64696e673a20696e76616c6964207475706c65206f66667360448201527f65740000000000000000000000000000000000000000000000000000000000006064820152fd5b608460405162461bcd60e51b815260206004820152602b60248201527f414249206465636f64696e673a20696e76616c69642063616c6c64617461206160448201527f72726179206f66667365740000000000000000000000000000000000000000006064820152fd5b608460405162461bcd60e51b815260206004820152602760248201527f414249206465636f64696e673a20696e76616c6964206279746520617272617960448201527f206c656e677468000000000000000000000000000000000000000000000000006064820152fd5b7f4e487b7100000000000000000000000000000000000000000000000000000000600052604160045260246000fd5b67ffffffffffffffff8111620003b857604052565b62000374565b6040810190811067ffffffffffffffff821117620003b857604052565b6060810190811067ffffffffffffffff821117620003b857604052565b60a0810190811067ffffffffffffffff821117620003b857604052565b90601f601f19910116810190811067ffffffffffffffff821117620003b857604052565b604051906200044882620003db565b565b604051906200044882620003be565b67ffffffffffffffff8111620003b857601f01601f191660200190565b929192620004848262000459565b9162000494604051938462000415565b829481845281830111620004b2578281602093846000960137010152565b6200030a565b9080601f83011215620004d957816020620004d69335910162000476565b90565b620002a0565b906040600319830112620005305767ffffffffffffffff6004358181116200052a57836200051091600401620004b8565b926024359182116200052a57620004d691600401620004b8565b62000236565b620001cc565b60005b8381106200054a5750506000910152565b818101518382015260200162000539565b60206200057691816040519382858094519384920162000536565b8101600081520301902090565b60206200059e91816040519382858094519384920162000536565b8101600481520301902090565b6020620005c691816040519382858094519384920162000536565b8101600381520301902090565b602090620005ef92826040519483868095519384920162000536565b82019081520301902090565b90600182811c9216801562000646575b60208310146200061757565b7f4e487b7100000000000000000000000000000000000000000000000000000000600052602260045260246000fd5b91607f16916200060b565b90604051918260008254926200066784620005fb565b908184526001948581169081600014620006dc575060011462000695575b5050620004489250038362000415565b9093915060005260209081600020936000915b818310620006c3575050620004489350820101388062000685565b85548884018501529485019487945091830191620006a8565b9050620004489550602093507fffffffffffffffffffffffffffffffffffffffffffffffffffffffffffffff0091501682840152151560051b820101388062000685565b90601f19601f602093620007408151809281875287808801910162000536565b0116010190565b34620007d257620007bf6200078d60206200077c6200076636620004df565b9290816040519382858094519384920162000536565b8101600281520301902090620005d3565b620007ce620007aa6001620007a28462000651565b930162000651565b60405193849360408552604085019062000720565b90838203602085015262000720565b0390f35b62000162565b608460405162461bcd60e51b815260206004820152602760248201527f414249206465636f64696e673a207374727563742063616c6c6461746120746f60448201527f6f2073686f7274000000000000000000000000000000000000000000000000006064820152fd5b9081610120910312620008525790565b620007d8565b73ffffffffffffffffffffffffffffffffffffffff8116036200087757565b600080fd5b604060031982011262000530576004359067ffffffffffffffff82116200052a57620008ab9160040162000842565b90602435620004d68162000858565b34620007d257620007ce620008e4620008d3366200087c565b90620008de62003414565b620031fc565b60405191829160208352602083019062000720565b34620007d2576020600319360112620005305760043567ffffffffffffffff81116200052a5773ffffffffffffffffffffffffffffffffffffffff620009506200094a6020933690600401620004b8565b6200055b565b5416604051908152f35b6004359060038210156200087757565b608460405162461bcd60e51b815260206004820152602b60248201527f414249206465636f64696e673a20696e76616c69642063616c6c64617461206160448201527f72726179206c656e6774680000000000000000000000000000000000000000006064820152fd5b608460405162461bcd60e51b815260206004820152602b60248201527f414249206465636f64696e673a20696e76616c69642063616c6c64617461206160448201527f72726179207374726964650000000000000000000000000000000000000000006064820152fd5b9181601f84011215620004d95782359167ffffffffffffffff831162000a78576020808501948460051b01011162000a7257565b620009d4565b6200096a565b9181601f84011215620004d95782359167ffffffffffffffff831162000a78576020838186019501011162000a7257565b90816040910312620008525790565b34620007d25760c0600319360112620005305762000adb6200095a565b5067ffffffffffffffff6024358181116200052a5762000b0090369060040162000a3e565b50506044358181116200052a5762000b1d90369060040162000a7e565b6064358381116200052a5762000b3890369060040162000a7e565b916084358581116200052a5762000b5490369060040162000aaf565b9360a4359586116200052a5762000b7462000b7c96369060040162000a7e565b50506200380c565b005b34620007d2576060600319360112620005305767ffffffffffffffff6004358181116200052a5762000bb590369060040162000a7e565b50506024358181116200052a5762000bd290369060040162000a7e565b50506044359081116200052a5762000bef90369060040162000a7e565b505062000b7c62003414565b906060600319830112620005305767ffffffffffffffff6004358181116200052a578362000c2c91600401620004b8565b926024359182116200052a5762000c4691600401620004b8565b90604435620004d68162000858565b34620007d257602062000ca962000c7d62000c8462000c743662000bfb565b93909162000583565b90620005d3565b9073ffffffffffffffffffffffffffffffffffffffff16600052602052604060002090565b54604051908152f35b34620007d25762000b7c62000d2b62000d1462000d3462000cd3366200087c565b5062000cde62003414565b62000ced6020820182620024bf565b949062000d2262000d1c62000d066040860186620024bf565b97909560a0810190620024bf565b369162000476565b62002afc565b95369162000476565b92369162000476565b90620034c8565b906020620004d692818152019062000720565b34620007d2576060600319360112620005305767ffffffffffffffff6004358181116200052a5762000d85903690600401620004b8565b906024358181116200052a5762000da1903690600401620004b8565b916044359182116200052a57620007ce9262000dc6620008e4933690600401620004b8565b91620018f5565b60009103126200053057565b34620007d25760006003193601126200053057602060405173ffffffffffffffffffffffffffffffffffffffff7f0000000000000000000000000000000000000000000000000000000000000000168152f35b9181601f84011215620004d95782359167ffffffffffffffff831162000a78576020808501948460061b01011162000a7257565b6084359067ffffffffffffffff821682036200087757565b60a4359067ffffffffffffffff821682036200087757565b359067ffffffffffffffff821682036200087757565b34620007d25760c0600319360112620005305767ffffffffffffffff6004358181116200052a5762000edd90369060040162000a7e565b6024358381116200052a5762000ef890369060040162000a7e565b906044358581116200052a5762000f1490369060040162000a7e565b906064359687116200052a5762000f3462000b7c97369060040162000e2c565b94909362000f4162000e60565b9662000f4c62000e78565b9862001c49565b34620007d2576020600319360112620005305773ffffffffffffffffffffffffffffffffffffffff60043562000f898162000858565b166000526001602052620007ce620008e4604060002062000651565b34620007d25760e0600319360112620005305762000fc26200095a565b5060243567ffffffffffffffff8082116200052a5762000fe86004923690840162000a3e565b50506044358181116200052a5762001004903690840162000a7e565b906064358381116200052a576200101f903690860162000a7e565b9290916084358581116200052a576200103c903690880162000aaf565b9460a4358181116200052a5762001057903690890162000a7e565b505060c4359081116200052a5762000b7c9662000b749136910162000a7e565b6040600319820112620005305767ffffffffffffffff916004358381116200052a5782620010a89160040162000a7e565b939093926024359182116200052a57620010c59160040162000a7e565b9091565b34620007d257620010da3662001077565b5050505062000b7c62003414565b34620007d257620007ce620008e46200110136620004df565b906200187c565b34620007d25762001119366200087c565b506200112730331462002473565b6200113e62000d1c62000d1460a0840184620024bf565b9060608101906200117a620011548383620024bf565b919062001101608085019362000d2b6200116f8688620024bf565b949092369162000476565b90600090604080870195602092838901945b885190815181101562000b7c578588888b87620011e5620011f1620011ec620011b7898c9b62001b57565b5195620011db620011d4620011cd895162002773565b9962002773565b89620029c8565b9384915162002e53565b97620028ee565b151590565b156200136557966200124f9162000d2b62001248620012146200122e9b6200279d565b9862001237620012248b62002e53565b9c8d9589620024bf565b969098620024bf565b939091890197885196369162000476565b9062003072565b5173ffffffffffffffffffffffffffffffffffffffff8616803b156200135f5789517fa9059cbb00000000000000000000000000000000000000000000000000000000815273ffffffffffffffffffffffffffffffffffffffff8516600482015260248101929092528a90829060449082906000905af193841562001359578f968b6200131f9862001316947f4fbf7b37320cf1a4b0aacf748cf3563828e82ed2a33518061db1d1b523fe1f2e9862001325575b505b51940151918b51958695866200270b565b0390a162001a5b565b6200118c565b6200134990833d851162001351575b62001340818362000415565b810190620021c3565b503862001303565b503d62001334565b62001b4b565b62001ae1565b505062001397919550620013a5816200138a620013ac959662000d2b940182620024bf565b9490918c810190620024bf565b939091895195369162000476565b90620018f5565b90620013d6620013bc836200055b565b5473ffffffffffffffffffffffffffffffffffffffff1690565b9373ffffffffffffffffffffffffffffffffffffffff80861615620014be575b85168982015190803b156200135f5789517f40c10f1900000000000000000000000000000000000000000000000000000000815273ffffffffffffffffffffffffffffffffffffffff8516600482015260248101929092526000908290604490829084905af193841562001359578f968b6200131f9862001316947f4fbf7b37320cf1a4b0aacf748cf3563828e82ed2a33518061db1d1b523fe1f2e98620014a0575b5062001305565b80620014b0620014b792620003a3565b8062000dcd565b3862001499565b9450875161139180820182811067ffffffffffffffff821117620003b85785620014f091849362003a19853962000d3b565b03906000f0801562001359578516946200154f866200150f866200055b565b9073ffffffffffffffffffffffffffffffffffffffff167fffffffffffffffffffffffff0000000000000000000000000000000000000000825416179055565b62001585846200157f8873ffffffffffffffffffffffffffffffffffffffff166000526001602052604060002090565b620025fa565b7f61144287c6e93dddde3f500b97bd4c139806a072ad41e403c607fc2fb8e37f47895180620015b6898883620026d5565b0390a1620013f6565b34620007d257602062000ca962000c7d62000c84620015de3662000bfb565b939091620005ab565b34620007d257620015f83662001077565b505050506200160662003414565b608460405162461bcd60e51b815260206004820152602f60248201527f75637330312d72656c61793a20636c6f73696e672061206368616e6e656c206960448201527f73206e6f7420737570706f7274656400000000000000000000000000000000006064820152fd5b34620007d2576060600319360112620005305767ffffffffffffffff6004358181116200052a57620016a790369060040162000842565b906024359081116200052a57620016c390369060040162000a7e565b620016d060443562000858565b620016da62003414565b60018103620017ce577fff00000000000000000000000000000000000000000000000000000000000000620017726200174c7f0100000000000000000000000000000000000000000000000000000000000000936200174562000d1c62000d1460a08a018a620024bf565b95620034be565b357fff000000000000000000000000000000000000000000000000000000000000001690565b1603620017ae5781620017a76200116f62000d2b62001799602062000b7c970185620024bf565b9290946040810190620024bf565b90620036ce565b8162000d346200116f62000d2b62001799602062000b7c970185620024bf565b606460405162461bcd60e51b815260206004820152601c60248201527f75637330312d72656c61793a2073696e676c6520627974652061636b000000006044820152fd5b608460405162461bcd60e51b815260206004820152603560248201527f436f6e747261637420646f6573206e6f7420686176652066616c6c6261636b2060448201527f6e6f7220726563656976652066756e6374696f6e7300000000000000000000006064820152fd5b6022620004d69160405193816200189e86935180926020808701910162000536565b8201907f2f0000000000000000000000000000000000000000000000000000000000000091826020820152620018df82518093602060218501910162000536565b0190602182015203600281018452018262000415565b62001907620004d6926020926200187c565b604051938162001921869351809286808701910162000536565b8201620019378251809386808501910162000536565b0103808452018262000415565b6020908260405193849283378101600281520301902090565b6020919283604051948593843782019081520301902090565b906040516200198581620003be565b6020620019a3600183956200199a8162000651565b85520162000651565b910152565b67ffffffffffffffff8111620003b85760051b60200190565b90620019cd82620019a8565b604090620019de8251918262000415565b838152601f19620019f08295620019a8565b0191600090815b84811062001a06575050505050565b602090825162001a1681620003be565b60608152828581830152828701015201620019f7565b7f4e487b7100000000000000000000000000000000000000000000000000000000600052601160045260246000fd5b600019811462001a6b5760010190565b62001a2c565b7f4e487b7100000000000000000000000000000000000000000000000000000000600052603260045260246000fd5b919081101562001ab15760061b0190565b62001a71565b35620004d68162000858565b356fffffffffffffffffffffffffffffffff81168103620008775790565b608460405162461bcd60e51b815260206004820152602560248201527f54617267657420636f6e747261637420646f6573206e6f7420636f6e7461696e60448201527f20636f64650000000000000000000000000000000000000000000000000000006064820152fd5b6040513d6000823e3d90fd5b805182101562001ab15760209160051b010190565b601f8260209493601f19938186528686013760008582860101520116010190565b929362001bcc62001bdb92936080969998979973ffffffffffffffffffffffffffffffffffffffff809616875260a0602088015260a087019162001b6c565b90848203604086015262000720565b951660608201520152565b92909362001c07620004d6979562001c169460c0875260c087019162001b6c565b91848303602086015262001b6c565b92602067ffffffffffffffff9182815116604085015201511660608201526000608082015260a081840391015262000720565b93909492989596919662001c7462001c6e62001c66888862001944565b8c8b6200195d565b62001976565b5062001c8083620019c1565b928a60005b82811062001de857505050509062001d0062001d7b93926040519362001ceb8562001cdc33602083017fffffffffffffffffffffffffffffffffffffffff00000000000000000000000060149260601b1681520190565b03601f19810187528662000415565b62001cf562000439565b948552369162000476565b6020830152604082015262001d7573ffffffffffffffffffffffffffffffffffffffff7f0000000000000000000000000000000000000000000000000000000000000000169562001d6462001d546200044a565b67ffffffffffffffff909a168a52565b67ffffffffffffffff166020890152565b62002324565b90833b156200135f5762001dc5600096928793604051998a98899788967fae4cd2010000000000000000000000000000000000000000000000000000000088526004880162001be6565b03925af18015620013595762001dd85750565b80620014b06200044892620003a3565b62001df581848662001aa0565b62001e1d62001e048262001ab7565b73ffffffffffffffffffffffffffffffffffffffff1690565b8c60209462001e588685019362001e4d62001e388662001ac3565b6fffffffffffffffffffffffffffffffff1690565b903090339062002070565b8c62001e9862001e9262001e6c8762001ab7565b73ffffffffffffffffffffffffffffffffffffffff166000526001602052604060002090565b62000651565b928d8451151560001462001fd8575050505062001ebd62001e0462001e048562001ab7565b9262001ec98362001ac3565b93803b156200135f576040517f9dc29fac0000000000000000000000000000000000000000000000000000000081523060048201526fffffffffffffffffffffffffffffffff9590951660248601526000908590604490829084905af18015620013595762001e3862001fa262001316938d62001fb99a7f02645a748567ced80c53f748089202f0e84917cde65e3e29c1641fa1894784319962001fa99662001fc1575b505b8762001f7c8c8462001b57565b515262001f998b62001f9262001e388c62001ac3565b9362001b57565b51015262001ab7565b9462001ac3565b6040519384938d8c338762001b8d565b8b9062001c85565b80620014b062001fd192620003a3565b3862001f6d565b62001fb9989450866200205362001316958862001fa9966fffffffffffffffffffffffffffffffff6200204a62001e389862000d227f02645a748567ced80c53f748089202f0e84917cde65e3e29c1641fa1894784319f9962000d226200204362001fa29c62001ab7565b9762001ac3565b911692620023f7565b8d62002069620020638362001ab7565b620022ac565b9662001f6f565b90600080620021309460405194602097888701957f23b872dd00000000000000000000000000000000000000000000000000000000875273ffffffffffffffffffffffffffffffffffffffff938480921660248a0152166044880152606487015260648652620020e086620003f8565b169260405194620020f186620003be565b8786527f5361666545524332303a206c6f772d6c6576656c2063616c6c206661696c656488870152519082855af162002129620021dd565b9162002212565b805190816200213e57505050565b828062002150938301019101620021c3565b15620021595750565b6084906040519062461bcd60e51b82526004820152602a60248201527f5361666545524332303a204552433230206f7065726174696f6e20646964206e60448201527f6f742073756363656564000000000000000000000000000000000000000000006064820152fd5b908160209103126200053057518015158103620008775790565b3d156200220d573d90620021f18262000459565b9162002201604051938462000415565b82523d6000602084013e565b606090565b9192901562002276575081511562002228575090565b3b15620022325790565b606460405162461bcd60e51b815260206004820152601d60248201527f416464726573733a2063616c6c20746f206e6f6e2d636f6e74726163740000006044820152fd5b8251909150156200228a5750805190602001fd5b620022a89060405191829162461bcd60e51b83526004830162000d3b565b0390fd5b906040519160808301604052600f6f3031323334353637383961626364656681526002840191602883526000604a86015260601b90600160005b8080018701602285831a85811651602384015360041c5191015301601481146200231357600190620022e6565b505050613078600282510191528252565b6200235590805190602091828201519160408091015193620023688251968794606084870152608086019062000720565b601f199586868303018587015262000720565b908484830301606085015285519182815281810182808560051b8401019801946000925b858410620023ad5750505050505050620004d6920390810183528262000415565b919360019193959750808a8a85839a9c9d030187528a51908280620023da84518a85528a85019062000720565b93015191015299019401940191899694919897989593956200238c565b919091620024158262000c846200240e8462000583565b86620005d3565b5493840180941162001a6b57620024359262000c7d62000c849262000583565b55565b906020820180921162001a6b57565b906002820180921162001a6b57565b906001820180921162001a6b57565b9190820180921162001a6b57565b156200087757565b606460405162461bcd60e51b815260206004820152601760248201527f43616c6c64617461207461696c20746f6f2073686f72740000000000000000006044820152fd5b9035907fffffffffffffffffffffffffffffffffffffffffffffffffffffffffffffffe1813603018212156200255d570180359067ffffffffffffffff821162002519576020019181360383136200251357565b6200247b565b606460405162461bcd60e51b815260206004820152601c60248201527f496e76616c69642063616c6c64617461207461696c206c656e677468000000006044820152fd5b606460405162461bcd60e51b815260206004820152601c60248201527f496e76616c69642063616c6c64617461207461696c206f6666736574000000006044820152fd5b90601f8111620025b057505050565b600091825260208220906020601f850160051c83019410620025ef575b601f0160051c01915b828110620025e357505050565b818155600101620025d6565b9092508290620025cd565b919091825167ffffffffffffffff8111620003b8576200262781620026208454620005fb565b84620025a1565b602080601f83116001146200266557508192939460009262002659575b50506000198260011b9260031b1c1916179055565b01519050388062002644565b90601f198316956200267c85600052602060002090565b926000905b888210620026bc57505083600195969710620026a2575b505050811b019055565b015160001960f88460031b161c1916905538808062002698565b8060018596829496860151815501950193019062002681565b9073ffffffffffffffffffffffffffffffffffffffff6200270460209295949560408552604085019062000720565b9416910152565b91906080936200272c62001bdb929897969860a0865260a086019062000720565b9073ffffffffffffffffffffffffffffffffffffffff8094166020860152848203604086015262000720565b604051906200276782620003be565b60006020838281520152565b6200277d62002758565b506020815191604051926200279284620003be565b835201602082015290565b805190620027c8620027af8362000459565b92620027bf604051948562000415565b80845262000459565b602080840190601f19809301368337808401519351919391925b81841015620028335750600019928062002807575b5050518251821691191617905290565b90809293500390811162001a6b57620028246200282a9162002883565b62002864565b903880620027f7565b9291938451815281810180911162001a6b579381810180911162001a6b579183810190811162001a6b5792620027e2565b90600019820191821162001a6b57565b602003906020821162001a6b57565b601f811162001a6b576101000a90565b908160031b917f1fffffffffffffffffffffffffffffffffffffffffffffffffffffffffffffff81160362001a6b57565b60ff811162001a6b576001901b90565b8181039291600013801582851316918412161762001a6b57565b91908251928151848110620029bf575b506020808201519481840151906000965b8188106200292c5750505050620004d692935051905190620028d4565b805183519081810362002965575b5050620029566200294f6200295d9262002438565b9362002438565b9762002438565b96916200290f565b60001986851062002989575b91821691168181146200293a57039750505050505050565b50620029b862002824620029b2620029ac8d620029a68962002874565b62002465565b62002893565b620028c4565b1962002971565b935038620028fe565b90620029d362002758565b5081519080519182811062002a42576001926020850193845182602086015180830362002a31575b50505062002a0b575b5050505090565b810390811162001a6b5783525190805191820180921162001a6b57523880808062002a04565b8192935020912014388281620029fb565b50505090565b81601f82011215620004d957805162002a618162000459565b9262002a71604051948562000415565b81845260208284010111620004b257620004d6916020808501910162000536565b608460405162461bcd60e51b815260206004820152602360248201527f414249206465636f64696e673a20696e76616c696420737472756374206f666660448201527f73657400000000000000000000000000000000000000000000000000000000006064820152fd5b604080519062002b0c82620003db565b60609283835283826020948286820152015280518101928084019480838603126200053057818301519467ffffffffffffffff958681116200052a57878462002b589287010162002a48565b96858501518781116200052a57818562002b759288010162002a48565b9483810151908882116200052a57019281603f85011215620004d957848401519262002ba184620019a8565b9862002bb089519a8b62000415565b848a5288878b019560051b8701019584871162000a7257898101955b87871062002bf257505050505050505062002be662000439565b94855284015282015290565b8651838111620004d95782018b601f19828703011262002c57578b519162002c1a83620003be565b8c8201519285841162002c515787838f8b8f979162002c3d928998010162002a48565b835201518382015281520196019562002bcc565b62002a92565b60848a8d519062461bcd60e51b82526004820152602360248201527f414249206465636f64696e673a20737472756374206461746120746f6f20736860448201527f6f727400000000000000000000000000000000000000000000000000000000006064820152fd5b9073ffffffffffffffffffffffffffffffffffffff0073ffffffffffffffffffffffffffffffffffffffff83169260081b1691808304610100149015171562001a6b57565b9073fffffffffffffffffffffffffffffffffffffff073ffffffffffffffffffffffffffffffffffffffff83169260041b16918083046010149015171562001a6b57565b90815181101562001ab1570160200190565b907fffffffffffffffffffffffffffffffffffffffffffffffffffffffffffffffd073ffffffffffffffffffffffffffffffffffffffff8093160191821162001a6b57565b907fffffffffffffffffffffffffffffffffffffffffffffffffffffffffffffffc973ffffffffffffffffffffffffffffffffffffffff8093160191821162001a6b57565b907fffffffffffffffffffffffffffffffffffffffffffffffffffffffffffffffa973ffffffffffffffffffffffffffffffffffffffff8093160191821162001a6b57565b91909173ffffffffffffffffffffffffffffffffffffffff8080941691160191821162001a6b57565b60006002915b602a831062002e7e575073ffffffffffffffffffffffffffffffffffffffff91501690565b9062002f7662002e9262002f7d9262002cc0565b62002f6f62002ee062002eda62002ed462002eae898962002d49565b517fff000000000000000000000000000000000000000000000000000000000000001690565b60f81c90565b60ff1690565b62002f0262002eda62002ed462002eae62002efb8b62002456565b8a62002d49565b9073ffffffffffffffffffffffffffffffffffffffff90606190828116828110158062003066575b1562003005575062002f3c9062002de5565b915b8316908110158062002ff9575b1562002f8557509062002f6262002f699162002de5565b9162002d05565b62002e2a565b9062002e2a565b9262002447565b919062002e59565b60418110158062002fed575b1562002fa857509062002f6262002f699162002da0565b6030811015908162002fe0575b5062002fc7575b62002f699062002d05565b9062002fd762002f699162002d5b565b91905062002fbc565b6039915011153862002fb5565b50604681111562002f91565b50606681111562002f4b565b6041811015806200305a575b156200302a5750620030239062002da0565b9162002f3e565b603081949294101590816200304d575b501562002f3e5791620030239062002d5b565b603991501115386200303a565b50604681111562003011565b50606681111562002f2a565b919091620030898262000c846200240e84620005ab565b5493840393841162001a6b57620024359262000c7d62000c8492620005ab565b606460405162461bcd60e51b815260206004820152601e60248201527f496e76616c69642063616c6c64617461206163636573732073747269646500006044820152fd5b90357fffffffffffffffffffffffffffffffffffffffffffffffffffffffffffffffe1823603018112156200318a57016020813591019167ffffffffffffffff8211620031465781360383136200314057565b620030a9565b606460405162461bcd60e51b815260206004820152601e60248201527f496e76616c69642063616c6c6461746120616363657373206c656e67746800006044820152fd5b606460405162461bcd60e51b815260206004820152601e60248201527f496e76616c69642063616c6c6461746120616363657373206f666673657400006044820152fd5b602090620031f68267ffffffffffffffff9283620031ec8262000e90565b1686520162000e90565b16910152565b906000809160405180946200338a60208301937fbd950f89000000000000000000000000000000000000000000000000000000008552604060248501526200325a606485016200324c8562000e90565b67ffffffffffffffff169052565b6200336d6200335b61010062003340876200331f620032ff620032df6200329d6200328960208d018d620030ed565b610120608488015261018487019162001b6c565b620032ac60408d018d620030ed565b907fffffffffffffffffffffffffffffffffffffffffffffffffffffffffffffff9c9660a4888286030191015262001b6c565b620032ee60608c018c620030ed565b8d8303860160c48f01529062001b6c565b6200330e60808b018b620030ed565b8c8303850160e48e01529062001b6c565b906200332f60a08a018a620030ed565b918b8403016101048c015262001b6c565b9562003354610124890160c08301620031ce565b0162000e90565b67ffffffffffffffff16610164860152565b73ffffffffffffffffffffffffffffffffffffffff166044840152565b0393620033a0601f199586810183528262000415565b519082305af1620033b0620021dd565b5015620033f9576040517f0100000000000000000000000000000000000000000000000000000000000000602082015290620004d69082602181015b0390810183528262000415565b6040516000602082015290620004d6908260218101620033ec565b3373ffffffffffffffffffffffffffffffffffffffff7f000000000000000000000000000000000000000000000000000000000000000016036200345457565b608460405162461bcd60e51b815260206004820152602960248201527f5f636865636b4942433a2063616c6c6572206973206e6f74207468652049424360448201527f20636f6e747261637400000000000000000000000000000000000000000000006064820152fd5b901562001ab15790565b929192620034d7845162002e53565b90600092835b6040908188015180518210156200368c5781620034fa9162001b57565b519173ffffffffffffffffffffffffffffffffffffffff928362003523620013bc83516200055b565b16938415620035c757506020015190833b156200135f57517f40c10f1900000000000000000000000000000000000000000000000000000000815273ffffffffffffffffffffffffffffffffffffffff8716600482015260248101919091529186908390604490829084905af19182156200135957620035aa92620035b0575b5062001a5b565b620034dd565b80620014b0620035c092620003a3565b38620035a3565b935090620035d6825162002e53565b93602080930194620035ec865182898b62003697565b16935190843b156200135f57517fa9059cbb00000000000000000000000000000000000000000000000000000000815273ffffffffffffffffffffffffffffffffffffffff881660048201526024810191909152928190849060449082908b905af19283156200135957620035aa9362003669575b505062001a5b565b816200368392903d10620013515762001340818362000415565b50388062003661565b505050505050509050565b919091620036ae8262000c846200240e8462000583565b5493840393841162001a6b57620024359262000c7d62000c849262000583565b92919060005b604090818401518051821015620037cc5781620036f19162001b57565b51916200374e62003703845162002773565b9151916200371183620003be565b60028352620037476020937f30780000000000000000000000000000000000000000000000000000000000008582015262002773565b90620037d5565b62003767575b5062003761915062001a5b565b620036d4565b62003773835162002e53565b920162003784815184868a62003697565b51620037a08362000c84620037998a620005ab565b87620005d3565b5490810180911162001a6b57620037c4620037619362000c84620037998a620005ab565b553862003754565b50505050509050565b80519082518092106200380457602080910151920151808314620037fc5781902091201490565b505050600190565b505050600090565b926200383e929194936200381f62003414565b856040519687928337810160028152602096879103019020916200195d565b916200384b8280620024bf565b9067ffffffffffffffff8211620003b85762003874826200386d8754620005fb565b87620025a1565b600090601f8311600114620038cf579282620038b99360019693620004489896600092620038c3575b505060001982881b9260031b1c19161784555b810190620024bf565b929091016200394d565b0135905038806200389d565b601f19831691620038e587600052602060002090565b92815b818110620039355750936001969362000448989693889383620038b998106200391a575b505050811b018455620038b0565b60001960f88560031b161c199101351690553880806200390c565b919386600181928787013581550195019201620038e8565b90929167ffffffffffffffff8111620003b8576200397181620026208454620005fb565b6000601f8211600114620039ac5781929394600092620039a05750506000198260011b9260031b1c1916179055565b01359050388062002644565b601f19821694620039c284600052602060002090565b91805b878110620039ff575083600195969710620039e457505050811b019055565b60001960f88560031b161c1991013516905538808062002698565b90926020600181928686013581550194019101620039c556fe608060409080825234620004a3575062001391803803806200002181620004f0565b92833981016020918281830312620004545780516001600160401b039182821162000405570191601f818185011215620003ad5783518381116200025557601f19946200007482840187168801620004f0565b938285528783830101116200035957869060005b838110620003445750506000918401015281519083821162000255576003928354926001938481811c9116801562000339575b898210146200032357838111620002d8575b50808884821160011462000277576000916200026b575b5060001982871b1c191690841b1784555b8051948511620002555760049687548481811c911680156200024a575b828210146200023557838111620001ea575b50809286116001146200017e57508495509084929160009562000172575b50501b92600019911b1c19161790555b600580546001600160a01b0319163317905551610e7a9081620005178239f35b01519350388062000142565b939295859081168860005285600020956000905b89838310620001cf5750505010620001b4575b50505050811b01905562000152565b01519060f884600019921b161c1916905538808080620001a5565b85870151895590970196948501948893509081019062000192565b88600052816000208480890160051c820192848a106200022b575b0160051c019085905b8281106200021e57505062000124565b600081550185906200020e565b9250819262000205565b602289634e487b7160e01b6000525260246000fd5b90607f169062000112565b634e487b7160e01b600052604160045260246000fd5b905082015138620000e4565b8886931690876000528a6000209160005b8c828210620002c15750508311620002a8575b5050811b018455620000f5565b84015160001983891b60f8161c1916905538806200029b565b838801518555899690940193928301920162000288565b85600052886000208480840160051c8201928b851062000319575b0160051c019085905b8281106200030c575050620000cd565b60008155018590620002fc565b92508192620002f3565b634e487b7160e01b600052602260045260246000fd5b90607f1690620000bb565b81810183015186820184015288920162000088565b875162461bcd60e51b815260048101889052602760248201527f414249206465636f64696e673a20696e76616c69642062797465206172726179604482015266040d8cadccee8d60cb1b6064820152608490fd5b855162461bcd60e51b815260048101869052602b60248201527f414249206465636f64696e673a20696e76616c69642063616c6c64617461206160448201526a1c9c985e481bd9999cd95d60aa1b6064820152608490fd5b855162461bcd60e51b815260048101869052602260248201527f414249206465636f64696e673a20696e76616c6964207475706c65206f666673604482015261195d60f21b6064820152608490fd5b835162461bcd60e51b815260048101849052602260248201527f414249206465636f64696e673a207475706c65206461746120746f6f2073686f6044820152611c9d60f21b6064820152608490fd5b62461bcd60e51b815260206004820152602260248201527f45746865722073656e7420746f206e6f6e2d70617961626c652066756e63746960448201526137b760f11b6064820152608490fd5b6040519190601f01601f191682016001600160401b03811183821017620002555760405256fe604060808152600480361015610078575b6020608492519162461bcd60e51b8352820152603560248201527f436f6e747261637420646f6573206e6f7420686176652066616c6c6261636b2060448201527f6e6f7220726563656976652066756e6374696f6e7300000000000000000000006064820152fd5b6000803560e01c806306fdde031461086e578063095ea7b31461084557806318160ddd1461082757806323b872dd14610732578063313ce5671461071757806339509351146106bb57806340c10f19146105e057806370a082311461059d57806395d89b411461041f5780639dc29fac146102ab578063a457c2d7146101e2578063a9059cbb146101b2578063dd62ed3e1461015c5763f851a4401461011e5750610010565b905034610157576003193601126101525760209073ffffffffffffffffffffffffffffffffffffffff600554169051908152f35b6109be565b610954565b5082346101575780600319360112610152578060209261017a610a70565b610182610a98565b73ffffffffffffffffffffffffffffffffffffffff91821683526001865283832091168252845220549051908152f35b83346101575780600319360112610152576020906101db6101d1610a70565b6024359033610af7565b5160018152f35b50346101575782600319360112610152576101fb610a70565b918360243592338152600160205281812073ffffffffffffffffffffffffffffffffffffffff86168252602052205490828210610242576020856101db8585038733610cb8565b608490602086519162461bcd60e51b8352820152602560248201527f45524332303a2064656372656173656420616c6c6f77616e63652062656c6f7760448201527f207a65726f0000000000000000000000000000000000000000000000000000006064820152fd5b5090346101575782600319360112610152576102c5610a70565b6024359073ffffffffffffffffffffffffffffffffffffffff906102ee82600554163314610df9565b169182156103b65782845283602052848420549082821061034d57508184957fddf252ad1be2c89b69c2b068fc378daa952ba7f163c4a11628f55a4df523b3ef936020938688528785520381872055816002540360025551908152a380f35b608490602087519162461bcd60e51b8352820152602260248201527f45524332303a206275726e20616d6f756e7420657863656564732062616c616e60448201527f63650000000000000000000000000000000000000000000000000000000000006064820152fd5b608490602086519162461bcd60e51b8352820152602160248201527f45524332303a206275726e2066726f6d20746865207a65726f2061646472657360448201527f73000000000000000000000000000000000000000000000000000000000000006064820152fd5b508234610157578160031936011261015257805190828454600181811c90808316928315610593575b602093848410811461056757838852879594939291811561052a57506001146104cc575b50505003601f01601f191682019267ffffffffffffffff8411838510176104a0575082918261049c925282610a28565b0390f35b806041867f4e487b71000000000000000000000000000000000000000000000000000000006024945252fd5b8888529193925086917f8a35acfbc15ff81a39ae7d344fd709f28e8600b4aa8c65c6b64bfe7fe36bd19b5b8284106105145750505090601f1992601f9282010191819361046c565b80548885018701528794509285019281016104f7565b7fffffffffffffffffffffffffffffffffffffffffffffffffffffffffffffff0016848701525050151560051b830101905081601f601f1961046c565b60248960228c7f4e487b7100000000000000000000000000000000000000000000000000000000835252fd5b91607f1691610448565b508234610157576020600319360112610152578060209273ffffffffffffffffffffffffffffffffffffffff6105d1610a70565b16815280845220549051908152f35b5091346101575780600319360112610152576105fa610a70565b906024359173ffffffffffffffffffffffffffffffffffffffff9061062482600554163314610df9565b1692831561067957506020827fddf252ad1be2c89b69c2b068fc378daa952ba7f163c4a11628f55a4df523b3ef9261065f8795600254610abb565b60025585855284835280852082815401905551908152a380f35b6020606492519162461bcd60e51b8352820152601f60248201527f45524332303a206d696e7420746f20746865207a65726f2061646472657373006044820152fd5b5082346101575780600319360112610152576101db6020926107106106de610a70565b913381526001865284812073ffffffffffffffffffffffffffffffffffffffff84168252865284602435912054610abb565b9033610cb8565b83823461015757600319360112610152576020905160128152f35b5090346101575760606003193601126101525761074d610a70565b610755610a98565b91846044359473ffffffffffffffffffffffffffffffffffffffff8416815260016020528181203382526020522054907fffffffffffffffffffffffffffffffffffffffffffffffffffffffffffffffff82036107bb575b6020866101db878787610af7565b8482106107e457509183916107d9602096956101db95033383610cb8565b9193948193506107ad565b606490602087519162461bcd60e51b8352820152601d60248201527f45524332303a20696e73756666696369656e7420616c6c6f77616e63650000006044820152fd5b83823461015757600319360112610152576020906002549051908152f35b83346101575780600319360112610152576020906101db610864610a70565b6024359033610cb8565b50823461095457816003193601126101525780519082600354600181811c9080831692831561094a575b602093848410811461056757838852879594939291811561052a57506001146108eb5750505003601f01601f191682019267ffffffffffffffff8411838510176104a0575082918261049c925282610a28565b600388529193925086917fc2575a0e9e593c00f959f8c92f12db2869c3395a3b0502d05e2516446f71f85b5b8284106109345750505090601f1992601f9282010191819361046c565b8054888501870152879450928501928101610917565b91607f1691610898565b608460405162461bcd60e51b815260206004820152602260248201527f45746865722073656e7420746f206e6f6e2d70617961626c652066756e63746960448201527f6f6e0000000000000000000000000000000000000000000000000000000000006064820152fd5b608460405162461bcd60e51b815260206004820152602260248201527f414249206465636f64696e673a207475706c65206461746120746f6f2073686f60448201527f72740000000000000000000000000000000000000000000000000000000000006064820152fd5b60208082528251818301819052939260005b858110610a5c57505050601f19601f8460006040809697860101520116010190565b818101830151848201604001528201610a3a565b6004359073ffffffffffffffffffffffffffffffffffffffff82168203610a9357565b600080fd5b6024359073ffffffffffffffffffffffffffffffffffffffff82168203610a9357565b91908201809211610ac857565b7f4e487b7100000000000000000000000000000000000000000000000000000000600052601160045260246000fd5b73ffffffffffffffffffffffffffffffffffffffff809116918215610c4e5716918215610be457600082815280602052604081205491808310610b7a57604082827fddf252ad1be2c89b69c2b068fc378daa952ba7f163c4a11628f55a4df523b3ef958760209652828652038282205586815220818154019055604051908152a3565b608460405162461bcd60e51b815260206004820152602660248201527f45524332303a207472616e7366657220616d6f756e742065786365656473206260448201527f616c616e636500000000000000000000000000000000000000000000000000006064820152fd5b608460405162461bcd60e51b815260206004820152602360248201527f45524332303a207472616e7366657220746f20746865207a65726f206164647260448201527f65737300000000000000000000000000000000000000000000000000000000006064820152fd5b608460405162461bcd60e51b815260206004820152602560248201527f45524332303a207472616e736665722066726f6d20746865207a65726f20616460448201527f64726573730000000000000000000000000000000000000000000000000000006064820152fd5b73ffffffffffffffffffffffffffffffffffffffff809116918215610d905716918215610d265760207f8c5be1e5ebec7d5bd14f71427d1e84f3dd0314c0f7b2291e5b200ac8c7c3b925918360005260018252604060002085600052825280604060002055604051908152a3565b608460405162461bcd60e51b815260206004820152602260248201527f45524332303a20617070726f766520746f20746865207a65726f20616464726560448201527f73730000000000000000000000000000000000000000000000000000000000006064820152fd5b608460405162461bcd60e51b8152602060048201526024808201527f45524332303a20617070726f76652066726f6d20746865207a65726f2061646460448201527f72657373000000000000000000000000000000000000000000000000000000006064820152fd5b15610e0057565b606460405162461bcd60e51b815260206004820152600a60248201527f6f6e6c792061646d696e000000000000000000000000000000000000000000006044820152fdfea2646970667358221220b55d9dd39a8249de4f3cb5a3c505e723260104c4d52151e051845cb69b5b546964736f6c63430008130033a2646970667358221220e92a60542002379c9b67946e847328ba0d9e6d8897edc2125454e1cf1b5d265c64736f6c63430008130033",
    "linkReferences": {}
  },
  "methodIdentifiers": {
    "addressToDenom(address)": "95469df8",
    "counterpartyEndpoints(string,string)": "06d8af32",
    "denomToAddress(string)": "4020d0ed",
    "ibcAddress()": "696a9bf4",
    "inFlight(string,string,address)": "51c78ced",
    "makeDenomPrefix(string,string)": "ace07ee9",
    "makeForeignDenom(string,string,string)": "5e685869",
    "onAcknowledgementPacket((uint64,string,string,string,string,bytes,(uint64,uint64),uint64),bytes,address)": "fb8b532e",
    "onChanCloseConfirm(string,string)": "ef4776d2",
    "onChanCloseInit(string,string)": "e74a1ac2",
    "onChanOpenAck(string,string,string)": "4942d1ac",
    "onChanOpenConfirm(string,string)": "a113e411",
    "onChanOpenInit(uint8,string[],string,string,(string,string),string)": "44dd9638",
    "onChanOpenTry(uint8,string[],string,string,(string,string),string,string)": "981389f2",
    "onRecvPacket((uint64,string,string,string,string,bytes,(uint64,uint64),uint64),address)": "2301c6f5",
    "onRecvPacketProcessing((uint64,string,string,string,string,bytes,(uint64,uint64),uint64),address)": "bd950f89",
    "onTimeoutPacket((uint64,string,string,string,string,bytes,(uint64,uint64),uint64),address)": "52c7157d",
    "outstanding(string,string,address)": "d7c83be5",
    "send(string,string,string,(address,uint128)[],uint64,uint64)": "908fc15a"
  },
  "id": 37
}