{
  "abi": [
    {
      "inputs": [
        {
          "internalType": "contract IBCHandler",
          "name": "_ibcHandler",
          "type": "address"
        }
      ],
      "stateMutability": "nonpayable",
      "type": "constructor"
    },
    {
      "anonymous": false,
      "inputs": [
        {
          "indexed": false,
          "internalType": "string",
          "name": "denom",
          "type": "string"
        },
        {
          "indexed": false,
          "internalType": "address",
          "name": "token",
          "type": "address"
        }
      ],
      "name": "DenomCreated",
      "type": "event"
    },
    {
      "anonymous": false,
      "inputs": [
        {
          "indexed": false,
          "internalType": "string",
          "name": "sender",
          "type": "string"
        },
        {
          "indexed": false,
          "internalType": "address",
          "name": "receiver",
          "type": "address"
        },
        {
          "indexed": false,
          "internalType": "string",
          "name": "denom",
          "type": "string"
        },
        {
          "indexed": false,
          "internalType": "address",
          "name": "token",
          "type": "address"
        },
        {
          "indexed": false,
          "internalType": "uint256",
          "name": "amount",
          "type": "uint256"
        }
      ],
      "name": "Received",
      "type": "event"
    },
    {
      "anonymous": false,
      "inputs": [
        {
          "indexed": false,
          "internalType": "address",
          "name": "sender",
          "type": "address"
        },
        {
          "indexed": false,
          "internalType": "string",
          "name": "receiver",
          "type": "string"
        },
        {
          "indexed": false,
          "internalType": "string",
          "name": "denom",
          "type": "string"
        },
        {
          "indexed": false,
          "internalType": "address",
          "name": "token",
          "type": "address"
        },
        {
          "indexed": false,
          "internalType": "uint256",
          "name": "amount",
          "type": "uint256"
        }
      ],
      "name": "Sent",
      "type": "event"
    },
    {
      "inputs": [
        {
          "internalType": "address",
          "name": "",
          "type": "address"
        }
      ],
      "name": "addressToDenom",
      "outputs": [
        {
          "internalType": "string",
          "name": "",
          "type": "string"
        }
      ],
      "stateMutability": "view",
      "type": "function"
    },
    {
      "inputs": [
        {
          "internalType": "string",
          "name": "",
          "type": "string"
        },
        {
          "internalType": "string",
          "name": "",
          "type": "string"
        }
      ],
      "name": "counterpartyEndpoints",
      "outputs": [
        {
          "internalType": "string",
          "name": "port_id",
          "type": "string"
        },
        {
          "internalType": "string",
          "name": "channel_id",
          "type": "string"
        }
      ],
      "stateMutability": "view",
      "type": "function"
    },
    {
      "inputs": [
        {
          "internalType": "string",
          "name": "",
          "type": "string"
        }
      ],
      "name": "denomToAddress",
      "outputs": [
        {
          "internalType": "address",
          "name": "",
          "type": "address"
        }
      ],
      "stateMutability": "view",
      "type": "function"
    },
    {
      "inputs": [],
      "name": "ibcAddress",
      "outputs": [
        {
          "internalType": "address",
          "name": "",
          "type": "address"
        }
      ],
      "stateMutability": "view",
      "type": "function"
    },
    {
      "inputs": [
        {
          "components": [
            {
              "internalType": "uint64",
              "name": "sequence",
              "type": "uint64"
            },
            {
              "internalType": "string",
              "name": "source_port",
              "type": "string"
            },
            {
              "internalType": "string",
              "name": "source_channel",
              "type": "string"
            },
            {
              "internalType": "string",
              "name": "destination_port",
              "type": "string"
            },
            {
              "internalType": "string",
              "name": "destination_channel",
              "type": "string"
            },
            {
              "internalType": "bytes",
              "name": "data",
              "type": "bytes"
            },
            {
              "components": [
                {
                  "internalType": "uint64",
                  "name": "revision_number",
                  "type": "uint64"
                },
                {
                  "internalType": "uint64",
                  "name": "revision_height",
                  "type": "uint64"
                }
              ],
              "internalType": "struct IbcCoreClientV1Height.Data",
              "name": "timeout_height",
              "type": "tuple"
            },
            {
              "internalType": "uint64",
              "name": "timeout_timestamp",
              "type": "uint64"
            }
          ],
          "internalType": "struct IbcCoreChannelV1Packet.Data",
          "name": "ibcPacket",
          "type": "tuple"
        },
        {
          "internalType": "bytes",
          "name": "acknowledgement",
          "type": "bytes"
        },
        {
          "internalType": "address",
          "name": "_relayer",
          "type": "address"
        }
      ],
      "name": "onAcknowledgementPacket",
      "outputs": [],
      "stateMutability": "nonpayable",
      "type": "function"
    },
    {
      "inputs": [
        {
          "internalType": "string",
          "name": "_portId",
          "type": "string"
        },
        {
          "internalType": "string",
          "name": "_channelId",
          "type": "string"
        }
      ],
      "name": "onChanCloseConfirm",
      "outputs": [],
      "stateMutability": "nonpayable",
      "type": "function"
    },
    {
      "inputs": [
        {
          "internalType": "string",
          "name": "_portId",
          "type": "string"
        },
        {
          "internalType": "string",
          "name": "_channelId",
          "type": "string"
        }
      ],
      "name": "onChanCloseInit",
      "outputs": [],
      "stateMutability": "nonpayable",
      "type": "function"
    },
    {
      "inputs": [
        {
          "internalType": "string",
          "name": "portId",
          "type": "string"
        },
        {
          "internalType": "string",
          "name": "channelId",
          "type": "string"
        },
        {
          "internalType": "string",
          "name": "counterpartyChannelId",
          "type": "string"
        },
        {
          "internalType": "string",
          "name": "_counterpartyVersion",
          "type": "string"
        }
      ],
      "name": "onChanOpenAck",
      "outputs": [],
      "stateMutability": "nonpayable",
      "type": "function"
    },
    {
      "inputs": [
        {
          "internalType": "string",
          "name": "_portId",
          "type": "string"
        },
        {
          "internalType": "string",
          "name": "_channelId",
          "type": "string"
        }
      ],
      "name": "onChanOpenConfirm",
      "outputs": [],
      "stateMutability": "nonpayable",
      "type": "function"
    },
    {
      "inputs": [
        {
          "internalType": "enum IbcCoreChannelV1GlobalEnums.Order",
          "name": "_order",
          "type": "uint8"
        },
        {
          "internalType": "string[]",
          "name": "_connectionHops",
          "type": "string[]"
        },
        {
          "internalType": "string",
          "name": "portId",
          "type": "string"
        },
        {
          "internalType": "string",
          "name": "channelId",
          "type": "string"
        },
        {
          "components": [
            {
              "internalType": "string",
              "name": "port_id",
              "type": "string"
            },
            {
              "internalType": "string",
              "name": "channel_id",
              "type": "string"
            }
          ],
          "internalType": "struct IbcCoreChannelV1Counterparty.Data",
          "name": "counterpartyEndpoint",
          "type": "tuple"
        },
        {
          "internalType": "string",
          "name": "_version",
          "type": "string"
        }
      ],
      "name": "onChanOpenInit",
      "outputs": [],
      "stateMutability": "nonpayable",
      "type": "function"
    },
    {
      "inputs": [
        {
          "internalType": "enum IbcCoreChannelV1GlobalEnums.Order",
          "name": "_order",
          "type": "uint8"
        },
        {
          "internalType": "string[]",
          "name": "_connectionHops",
          "type": "string[]"
        },
        {
          "internalType": "string",
          "name": "portId",
          "type": "string"
        },
        {
          "internalType": "string",
          "name": "channelId",
          "type": "string"
        },
        {
          "components": [
            {
              "internalType": "string",
              "name": "port_id",
              "type": "string"
            },
            {
              "internalType": "string",
              "name": "channel_id",
              "type": "string"
            }
          ],
          "internalType": "struct IbcCoreChannelV1Counterparty.Data",
          "name": "counterpartyEndpoint",
          "type": "tuple"
        },
        {
          "internalType": "string",
          "name": "_version",
          "type": "string"
        },
        {
          "internalType": "string",
          "name": "_counterpartyVersion",
          "type": "string"
        }
      ],
      "name": "onChanOpenTry",
      "outputs": [],
      "stateMutability": "nonpayable",
      "type": "function"
    },
    {
      "inputs": [
        {
          "components": [
            {
              "internalType": "uint64",
              "name": "sequence",
              "type": "uint64"
            },
            {
              "internalType": "string",
              "name": "source_port",
              "type": "string"
            },
            {
              "internalType": "string",
              "name": "source_channel",
              "type": "string"
            },
            {
              "internalType": "string",
              "name": "destination_port",
              "type": "string"
            },
            {
              "internalType": "string",
              "name": "destination_channel",
              "type": "string"
            },
            {
              "internalType": "bytes",
              "name": "data",
              "type": "bytes"
            },
            {
              "components": [
                {
                  "internalType": "uint64",
                  "name": "revision_number",
                  "type": "uint64"
                },
                {
                  "internalType": "uint64",
                  "name": "revision_height",
                  "type": "uint64"
                }
              ],
              "internalType": "struct IbcCoreClientV1Height.Data",
              "name": "timeout_height",
              "type": "tuple"
            },
            {
              "internalType": "uint64",
              "name": "timeout_timestamp",
              "type": "uint64"
            }
          ],
          "internalType": "struct IbcCoreChannelV1Packet.Data",
          "name": "ibcPacket",
          "type": "tuple"
        },
        {
          "internalType": "address",
          "name": "relayer",
          "type": "address"
        }
      ],
      "name": "onRecvPacket",
      "outputs": [
        {
          "internalType": "bytes",
          "name": "acknowledgement",
          "type": "bytes"
        }
      ],
      "stateMutability": "nonpayable",
      "type": "function"
    },
    {
      "inputs": [
        {
          "components": [
            {
              "internalType": "uint64",
              "name": "sequence",
              "type": "uint64"
            },
            {
              "internalType": "string",
              "name": "source_port",
              "type": "string"
            },
            {
              "internalType": "string",
              "name": "source_channel",
              "type": "string"
            },
            {
              "internalType": "string",
              "name": "destination_port",
              "type": "string"
            },
            {
              "internalType": "string",
              "name": "destination_channel",
              "type": "string"
            },
            {
              "internalType": "bytes",
              "name": "data",
              "type": "bytes"
            },
            {
              "components": [
                {
                  "internalType": "uint64",
                  "name": "revision_number",
                  "type": "uint64"
                },
                {
                  "internalType": "uint64",
                  "name": "revision_height",
                  "type": "uint64"
                }
              ],
              "internalType": "struct IbcCoreClientV1Height.Data",
              "name": "timeout_height",
              "type": "tuple"
            },
            {
              "internalType": "uint64",
              "name": "timeout_timestamp",
              "type": "uint64"
            }
          ],
          "internalType": "struct IbcCoreChannelV1Packet.Data",
          "name": "ibcPacket",
          "type": "tuple"
        },
        {
          "internalType": "address",
          "name": "relayer",
          "type": "address"
        }
      ],
      "name": "onRecvPacketProcessing",
      "outputs": [],
      "stateMutability": "nonpayable",
      "type": "function"
    },
    {
      "inputs": [
        {
          "components": [
            {
              "internalType": "uint64",
              "name": "sequence",
              "type": "uint64"
            },
            {
              "internalType": "string",
              "name": "source_port",
              "type": "string"
            },
            {
              "internalType": "string",
              "name": "source_channel",
              "type": "string"
            },
            {
              "internalType": "string",
              "name": "destination_port",
              "type": "string"
            },
            {
              "internalType": "string",
              "name": "destination_channel",
              "type": "string"
            },
            {
              "internalType": "bytes",
              "name": "data",
              "type": "bytes"
            },
            {
              "components": [
                {
                  "internalType": "uint64",
                  "name": "revision_number",
                  "type": "uint64"
                },
                {
                  "internalType": "uint64",
                  "name": "revision_height",
                  "type": "uint64"
                }
              ],
              "internalType": "struct IbcCoreClientV1Height.Data",
              "name": "timeout_height",
              "type": "tuple"
            },
            {
              "internalType": "uint64",
              "name": "timeout_timestamp",
              "type": "uint64"
            }
          ],
          "internalType": "struct IbcCoreChannelV1Packet.Data",
          "name": "ibcPacket",
          "type": "tuple"
        },
        {
          "internalType": "address",
          "name": "_relayer",
          "type": "address"
        }
      ],
      "name": "onTimeoutPacket",
      "outputs": [],
      "stateMutability": "nonpayable",
      "type": "function"
    },
    {
      "inputs": [
        {
          "internalType": "string",
          "name": "",
          "type": "string"
        },
        {
          "internalType": "string",
          "name": "",
          "type": "string"
        },
        {
          "internalType": "address",
          "name": "",
          "type": "address"
        }
      ],
      "name": "outstanding",
      "outputs": [
        {
          "internalType": "uint256",
          "name": "",
          "type": "uint256"
        }
      ],
      "stateMutability": "view",
      "type": "function"
    },
    {
      "inputs": [
        {
          "internalType": "string",
          "name": "portId",
          "type": "string"
        },
        {
          "internalType": "string",
          "name": "channelId",
          "type": "string"
        },
        {
          "internalType": "bytes",
          "name": "receiver",
          "type": "bytes"
        },
        {
          "components": [
            {
              "internalType": "address",
              "name": "denom",
              "type": "address"
            },
            {
              "internalType": "uint128",
              "name": "amount",
              "type": "uint128"
            }
          ],
          "internalType": "struct LocalToken[]",
          "name": "tokens",
          "type": "tuple[]"
        },
        {
          "internalType": "uint64",
          "name": "counterpartyTimeoutRevisionNumber",
          "type": "uint64"
        },
        {
          "internalType": "uint64",
          "name": "counterpartyTimeoutRevisionHeight",
          "type": "uint64"
        }
      ],
      "name": "send",
      "outputs": [],
      "stateMutability": "nonpayable",
      "type": "function"
    }
  ],
  "bytecode": {
    "object": "0x60a08060405234620000f057604051601f62004f4338819003918201601f19168301916001600160401b03831184841017620000da578084926020946040528339810103126200008a57516001600160a01b03811681036200008557608052604051614e0590816200013e8239608051818181610c8001528181611bc501526134e50152f35b600080fd5b60405162461bcd60e51b815260206004820152602260248201527f414249206465636f64696e673a207475706c65206461746120746f6f2073686f6044820152611c9d60f21b6064820152608490fd5b634e487b7160e01b600052604160045260246000fd5b62461bcd60e51b815260206004820152602260248201527f45746865722073656e7420746f206e6f6e2d70617961626c652066756e63746960448201526137b760f11b6064820152608490fdfe608060405260043610620017335760003560e01c806306d8af3214620001265780632301c6f514620001205780634020d0ed146200011a57806344dd963814620001145780634f01e52e146200010e57806352c7157d1462000108578063696a9bf4146200010257806395469df814620000fc578063981389f214620000f6578063a113e41114620000f0578063bd950f8914620000ea578063d7c83be514620000e4578063e74a1ac214620000de578063ef4776d214620000de578063f62d2bcc14620000d85763fb8b532e03620017335762001579565b620014cc565b620013c9565b62001324565b62000e4c565b62000e2d565b62000d09565b62000cb7565b62000c51565b62000bbc565b62000b23565b62000a63565b6200089e565b6200085f565b620006b8565b608460405162461bcd60e51b815260206004820152602260248201527f45746865722073656e7420746f206e6f6e2d70617961626c652066756e63746960448201527f6f6e0000000000000000000000000000000000000000000000000000000000006064820152fd5b608460405162461bcd60e51b815260206004820152602260248201527f414249206465636f64696e673a207475706c65206461746120746f6f2073686f60448201527f72740000000000000000000000000000000000000000000000000000000000006064820152fd5b608460405162461bcd60e51b815260206004820152602260248201527f414249206465636f64696e673a20696e76616c6964207475706c65206f66667360448201527f65740000000000000000000000000000000000000000000000000000000000006064820152fd5b608460405162461bcd60e51b815260206004820152602b60248201527f414249206465636f64696e673a20696e76616c69642063616c6c64617461206160448201527f72726179206f66667365740000000000000000000000000000000000000000006064820152fd5b608460405162461bcd60e51b815260206004820152602760248201527f414249206465636f64696e673a20696e76616c6964206279746520617272617960448201527f206c656e677468000000000000000000000000000000000000000000000000006064820152fd5b7f4e487b7100000000000000000000000000000000000000000000000000000000600052604160045260246000fd5b67ffffffffffffffff81116200038257604052565b6200033e565b6040810190811067ffffffffffffffff8211176200038257604052565b6060810190811067ffffffffffffffff8211176200038257604052565b60a0810190811067ffffffffffffffff8211176200038257604052565b90601f601f19910116810190811067ffffffffffffffff8211176200038257604052565b604051906200041282620003a5565b565b60405190620004128262000388565b67ffffffffffffffff81116200038257601f01601f191660200190565b9291926200044e8262000423565b916200045e6040519384620003df565b8294818452818301116200047c578281602093846000960137010152565b620002d4565b9080601f83011215620004a357816020620004a09335910162000440565b90565b6200026a565b60005b838110620004bd5750506000910152565b8181015183820152602001620004ac565b6020620004e9918160405193828580945193849201620004a9565b8101600281520301902090565b602062000511918160405193828580945193849201620004a9565b8101600081520301902090565b602062000539918160405193828580945193849201620004a9565b8101600381520301902090565b60209062000562928260405194838680955193849201620004a9565b82019081520301902090565b90600182811c92168015620005b9575b60208310146200058a57565b7f4e487b7100000000000000000000000000000000000000000000000000000000600052602260045260246000fd5b91607f16916200057e565b90604051918260008254620005d9816200056e565b9081845260209460019182811690816000146200064e57506001146200060b575b5050506200041292500383620003df565b600090815285812095935091905b81831062000635575050620004129350820101388080620005fa565b8554888401850152948501948794509183019162000619565b915050620004129593507fffffffffffffffffffffffffffffffffffffffffffffffffffffffffffffff0091501682840152151560051b820101388080620005fa565b90601f19601f602093620006b181518092818752878088019101620004a9565b0116010190565b3462000777576040600319360112620007715767ffffffffffffffff6004358181116200076b57620006ef90369060040162000482565b906024359081116200076b5762000758916200071f620007186200072693369060040162000482565b91620004ce565b9062000546565b620007676200074360016200073b84620005c4565b9301620005c4565b60405193849360408552604085019062000691565b90838203602085015262000691565b0390f35b62000200565b62000196565b6200012c565b608460405162461bcd60e51b815260206004820152602760248201527f414249206465636f64696e673a207374727563742063616c6c6461746120746f60448201527f6f2073686f7274000000000000000000000000000000000000000000000000006064820152fd5b9081610120910312620007f75790565b6200077d565b73ffffffffffffffffffffffffffffffffffffffff8116036200081c57565b600080fd5b604060031982011262000771576004359067ffffffffffffffff82116200076b576200085091600401620007e7565b90602435620004a081620007fd565b3462000777576200076762000889620008783662000821565b9062000883620034cd565b620032b5565b60405191829160208352602083019062000691565b3462000777576020600319360112620007715760043567ffffffffffffffff81116200076b5773ffffffffffffffffffffffffffffffffffffffff620008f5620008ef602093369060040162000482565b620004f6565b5416604051908152f35b6004359060038210156200081c57565b608460405162461bcd60e51b815260206004820152602b60248201527f414249206465636f64696e673a20696e76616c69642063616c6c64617461206160448201527f72726179206c656e6774680000000000000000000000000000000000000000006064820152fd5b608460405162461bcd60e51b815260206004820152602b60248201527f414249206465636f64696e673a20696e76616c69642063616c6c64617461206160448201527f72726179207374726964650000000000000000000000000000000000000000006064820152fd5b9181601f84011215620004a35782359167ffffffffffffffff831162000a1d576020808501948460051b01011162000a1757565b62000979565b6200090f565b9181601f84011215620004a35782359167ffffffffffffffff831162000a1d576020838186019501011162000a1757565b90816040910312620007f75790565b34620007775760c0600319360112620007715762000a80620008ff565b5067ffffffffffffffff6024358181116200076b5762000aa5903690600401620009e3565b50506044358181116200076b5762000ac290369060040162000a23565b6064358381116200076b5762000add90369060040162000a23565b916084358581116200076b5762000af990369060040162000a54565b9360a4359586116200076b5762000b1962000b2196369060040162000a23565b505062003750565b005b3462000777576080600319360112620007715767ffffffffffffffff6004358181116200076b5762000b5a90369060040162000a23565b906024358381116200076b5762000b7690369060040162000a23565b906044358581116200076b5762000b9290369060040162000a23565b9490936064359687116200076b5762000bb462000b2197369060040162000a23565b50506200395b565b34620007775762000b2162000c3562000c1e62000c3e62000bdd3662000821565b5062000be8620034cd565b62000bf7602082018262002475565b949062000c2c62000c2662000c10604086018662002475565b97909560a081019062002475565b369162000440565b62002f67565b95369162000440565b92369162000440565b9062003581565b60009103126200077157565b34620007775760006003193601126200077157602060405173ffffffffffffffffffffffffffffffffffffffff7f0000000000000000000000000000000000000000000000000000000000000000168152f35b906020620004a092818152019062000691565b3462000777576020600319360112620007715773ffffffffffffffffffffffffffffffffffffffff60043562000ced81620007fd565b16600052600160205262000767620008896040600020620005c4565b34620007775760e0600319360112620007715762000d26620008ff565b5060243567ffffffffffffffff8082116200076b5762000d4c60049236908401620009e3565b50506044358181116200076b5762000d68903690840162000a23565b906064358381116200076b5762000d83903690860162000a23565b9290916084358581116200076b5762000da0903690880162000a54565b9460a4358181116200076b5762000dbb903690890162000a23565b505060c4359081116200076b5762000b219662000b199136910162000a23565b6040600319820112620007715767ffffffffffffffff916004358381116200076b578262000e0c9160040162000a23565b939093926024359182116200076b5762000e299160040162000a23565b9091565b34620007775762000e3e3662000ddb565b5050505062000b21620034cd565b34620007775762000ec462000e613662000821565b5062000e6f30331462002429565b62000e8662000c2662000c1e60a084018462002475565b606082019162000e97838262002475565b949062000ebd608084019662000c3562000eb2898762002475565b949092369162000440565b9062002334565b90600090604080850195602097888701945b885190815181101562000b21578a8862000ef283869562001910565b5188878b62000f4462000f4062000f2c62000f2462000f1d62000f16895162002731565b9962002731565b8962002992565b935162002e0d565b9662000f39875162002731565b9062002851565b1590565b15620010c3579662000fa29162000c3562000f9b62000f6762000f819b6200275b565b9862000f8a62000f778b62002bee565b9c8d958962002475565b96909862002475565b939091890197885196369162000440565b906200312b565b5173ffffffffffffffffffffffffffffffffffffffff8616803b15620010bd5789517fa9059cbb00000000000000000000000000000000000000000000000000000000815273ffffffffffffffffffffffffffffffffffffffff8516600482015260248101929092528f90829060449082906000905af1938415620010b7578f966200107d978f620010649062001074957f4fbf7b37320cf1a4b0aacf748cf3563828e82ed2a33518061db1d1b523fe1f2e9962001083575b505b5162001dc5565b940151918b5195869586620026c9565b0390a1620018b4565b62000ed6565b620010a790843d8611620010af575b6200109e8183620003df565b8101906200220a565b50386200105b565b503d62001092565b62001a94565b620019a6565b505062001101919550620010e362001108939462000c3592018b62002475565b9290620010f38b8d018d62002475565b939091895195369162000440565b9062002a0c565b90620011326200111883620004f6565b5473ffffffffffffffffffffffffffffffffffffffff1690565b938d73ffffffffffffffffffffffffffffffffffffffff8087161562001220575b86169082015190803b15620010bd5789517f40c10f1900000000000000000000000000000000000000000000000000000000815273ffffffffffffffffffffffffffffffffffffffff8516600482015260248101929092526000908290604490829084905af1938415620010b7578f966200107d978f620010649062001074957f4fbf7b37320cf1a4b0aacf748cf3563828e82ed2a33518061db1d1b523fe1f2e9962001202575b506200105d565b806200121262001219926200036d565b8062000c45565b38620011fb565b955050875161139180820182811067ffffffffffffffff8211176200038257856200125391849362003a3f853962000ca4565b03906000f08015620010b757858f911695620012b4876200127487620004f6565b9073ffffffffffffffffffffffffffffffffffffffff167fffffffffffffffffffffffff0000000000000000000000000000000000000000825416179055565b620012ea85620012e48973ffffffffffffffffffffffffffffffffffffffff166000526001602052604060002090565b620025b0565b7f61144287c6e93dddde3f500b97bd4c139806a072ad41e403c607fc2fb8e37f478a51806200131b8a898362002693565b0390a162001153565b3462000777576060600319360112620007715767ffffffffffffffff6004358181116200076b576200135b90369060040162000482565b906024359081116200076b576020916200139b62001382620013c093369060040162000482565b6200071f604435936200139585620007fd565b6200051e565b9073ffffffffffffffffffffffffffffffffffffffff16600052602052604060002090565b54604051908152f35b346200077757620013da3662000ddb565b50505050620013e8620034cd565b608460405162461bcd60e51b815260206004820152602f60248201527f75637330312d72656c61793a20636c6f73696e672061206368616e6e656c206960448201527f73206e6f7420737570706f7274656400000000000000000000000000000000006064820152fd5b9181601f84011215620004a35782359167ffffffffffffffff831162000a1d576020808501948460061b01011162000a1757565b6084359067ffffffffffffffff821682036200081c57565b60a4359067ffffffffffffffff821682036200081c57565b359067ffffffffffffffff821682036200081c57565b34620007775760c0600319360112620007715767ffffffffffffffff6004358181116200076b576200150390369060040162000a23565b6024358381116200076b576200151e90369060040162000a23565b906044358581116200076b576200153a90369060040162000a23565b906064359687116200076b576200155a62000b2197369060040162001452565b9490936200156762001486565b96620015726200149e565b9862001aa0565b3462000777576060600319360112620007715767ffffffffffffffff6004358181116200076b57620015b0903690600401620007e7565b906024359081116200076b57620015cc90369060040162000a23565b620015d9604435620007fd565b620015e3620034cd565b60018103620016ef577fff000000000000000000000000000000000000000000000000000000000000006200167b620016557f0100000000000000000000000000000000000000000000000000000000000000936200164e62000c2662000c1e60a08a018a62002475565b9562003577565b357fff000000000000000000000000000000000000000000000000000000000000001690565b1603620016c15750620016ad81620016b86200169f602062000b2195018362002475565b939092604081019062002475565b929093369162000440565b50369162000440565b8162000c3e62000eb262000c35620016e1602062000b2197018562002475565b929094604081019062002475565b606460405162461bcd60e51b815260206004820152601c60248201527f75637330312d72656c61793a2073696e676c6520627974652061636b000000006044820152fd5b608460405162461bcd60e51b815260206004820152603560248201527f436f6e747261637420646f6573206e6f7420686176652066616c6c6261636b2060448201527f6e6f7220726563656976652066756e6374696f6e7300000000000000000000006064820152fd5b6020908260405193849283378101600281520301902090565b6020919283604051948593843782019081520301902090565b90604051620017de8162000388565b6020620017fc60018395620017f381620005c4565b855201620005c4565b910152565b67ffffffffffffffff8111620003825760051b60200190565b90620018268262001801565b6040906200183782519182620003df565b838152601f1962001849829562001801565b0191600090815b8481106200185f575050505050565b60209082516200186f8162000388565b6060815282858183015282870101520162001850565b7f4e487b7100000000000000000000000000000000000000000000000000000000600052601160045260246000fd5b6000198114620018c45760010190565b62001885565b7f4e487b7100000000000000000000000000000000000000000000000000000000600052603260045260246000fd5b91908110156200190a5760061b0190565b620018ca565b80518210156200190a5760209160051b010190565b356fffffffffffffffffffffffffffffffff811681036200081c5790565b35620004a081620007fd565b916080936200198c6200199b929897969873ffffffffffffffffffffffffffffffffffffffff809516865260a0602087015260a086019062000691565b90848203604086015262000691565b951660608201520152565b608460405162461bcd60e51b815260206004820152602560248201527f54617267657420636f6e747261637420646f6573206e6f7420636f6e7461696e60448201527f20636f64650000000000000000000000000000000000000000000000000000006064820152fd5b601f8260209493601f19938186528686013760008582860101520116010190565b92909362001a52620004a0979562001a619460c0875260c087019162001a10565b91848303602086015262001a10565b92602067ffffffffffffffff9182815116604085015201511660608201526000608082015260a081840391015262000691565b6040513d6000823e3d90fd5b93839993929791959662001acb62001ac562001abd89896200179d565b868c620017b6565b620017cf565b8762001ad7856200181a565b9460008b8d8b60209a8b8801965b86861062001c5957505050505050505050509062001b7262001baa94939262001b0e3362001d4d565b506040519862001b5d8a62001b4e338883017fffffffffffffffffffffffffffffffffffffffff00000000000000000000000060149260601b1681520190565b03601f1981018c528b620003df565b62001b6762000403565b998a52369162000440565b82880152604087015262001b9962001b8962000414565b67ffffffffffffffff9099168952565b87019067ffffffffffffffff169052565b62001bec73ffffffffffffffffffffffffffffffffffffffff7f0000000000000000000000000000000000000000000000000000000000000000169362001e43565b90833b15620010bd5762001c36600096928793604051998a98899788967fae4cd2010000000000000000000000000000000000000000000000000000000088526004880162001a31565b03925af18015620010b75762001c495750565b806200121262000412926200036d565b62001c6686888c620018f9565b9384928a51918a519362001c7a9662001f16565b908162001c88858c62001910565b51528a810192848c8c62001c9c8762001925565b6fffffffffffffffffffffffffffffffff169262001cba9162001910565b5101523662001cca918b62000440565b62001cd59062001dc5565b9062001ce19062001943565b9262001ced9062001925565b6fffffffffffffffffffffffffffffffff1660405193849362001d129333866200194f565b037f02645a748567ced80c53f748089202f0e84917cde65e3e29c1641fa18947843191a162001d4190620018b4565b8b8f8b8f918e62001ae5565b906040519160808301604052600f6f3031323334353637383961626364656681526002840191602883526000604a86015260601b90600160005b8080018701602285831a85811651602384015360041c51910153016014811462001db45760019062001d87565b505050613078600282510191528252565b908180519060405193600290818601938080018552600f906f303132333435363738396162636465668252602288019401915b82810362001e1a57505050602082600061307894520160405282510191528252565b909192809460018093019284845116519082015383835160041c16518153019392919062001df8565b62001e749080519060209182820151916040809101519362001e878251968794606084870152608086019062000691565b601f199586868303018587015262000691565b908484830301606085015285519182815281810182808560051b8401019801946000925b85841062001ecc5750505050505050620004a09203908101835282620003df565b919360019193959750808a8a85839a9c9d030187528a5190828062001ef984518a85528a85019062000691565b930151910152990194019401918996949198979895939562001eab565b969593949691909162001fcb62001f4a62001f318762001943565b73ffffffffffffffffffffffffffffffffffffffff1690565b9662001f83602088019862001f7862001f638b62001925565b6fffffffffffffffffffffffffffffffff1690565b9030903390620020b7565b62001fc262001fbc62001f968962001943565b73ffffffffffffffffffffffffffffffffffffffff166000526001602052604060002090565b620005c4565b998a91620022f3565b156200205f575050505062001fec62001f3162001f3162001ff39362001943565b9162001925565b90803b15620010bd576040517f9dc29fac0000000000000000000000000000000000000000000000000000000081523060048201526fffffffffffffffffffffffffffffffff9290921660248301526000908290604490829084905af18015620010b75762001c495750565b620004a0969750916fffffffffffffffffffffffffffffffff620020a2620020b1979362000c2c620020ab979662000c2c6200209b8b62001943565b9762001925565b911692620023ad565b62001943565b62001d4d565b90600080620021779460405194602097888701957f23b872dd00000000000000000000000000000000000000000000000000000000875273ffffffffffffffffffffffffffffffffffffffff938480921660248a01521660448801526064870152606486526200212786620003c2565b169260405194620021388662000388565b8786527f5361666545524332303a206c6f772d6c6576656c2063616c6c206661696c656488870152519082855af16200217062002224565b9162002259565b805190816200218557505050565b8280620021979383010191016200220a565b15620021a05750565b6084906040519062461bcd60e51b82526004820152602a60248201527f5361666545524332303a204552433230206f7065726174696f6e20646964206e60448201527f6f742073756363656564000000000000000000000000000000000000000000006064820152fd5b9081602091031262000771575180151581036200081c5790565b3d1562002254573d90620022388262000423565b91620022486040519384620003df565b82523d6000602084013e565b606090565b91929015620022bd57508151156200226f575090565b3b15620022795790565b606460405162461bcd60e51b815260206004820152601d60248201527f416464726573733a2063616c6c20746f206e6f6e2d636f6e74726163740000006044820152fd5b825190915015620022d15750805190602001fd5b620022ef9060405191829162461bcd60e51b83526004830162000ca4565b0390fd5b919081511515928362002307575b50505090565b602092935090620023189162002334565b8051918291012081602084012014915110151638808062002301565b6022620004a091604051938162002356869351809260208087019101620004a9565b8201907f2f000000000000000000000000000000000000000000000000000000000000009182602082015262002397825180936020602185019101620004a9565b01906021820152036002810184520182620003df565b919091620023cb826200139b620023c4846200051e565b8662000546565b54938401809411620018c457620023eb926200071f6200139b926200051e565b55565b9060208201809211620018c457565b9060028201809211620018c457565b9060018201809211620018c457565b91908201809211620018c457565b156200081c57565b606460405162461bcd60e51b815260206004820152601760248201527f43616c6c64617461207461696c20746f6f2073686f72740000000000000000006044820152fd5b9035907fffffffffffffffffffffffffffffffffffffffffffffffffffffffffffffffe18136030182121562002513570180359067ffffffffffffffff8211620024cf57602001918136038313620024c957565b62002431565b606460405162461bcd60e51b815260206004820152601c60248201527f496e76616c69642063616c6c64617461207461696c206c656e677468000000006044820152fd5b606460405162461bcd60e51b815260206004820152601c60248201527f496e76616c69642063616c6c64617461207461696c206f6666736574000000006044820152fd5b90601f81116200256657505050565b600091825260208220906020601f850160051c83019410620025a5575b601f0160051c01915b8281106200259957505050565b8181556001016200258c565b909250829062002583565b919091825167ffffffffffffffff81116200038257620025dd81620025d684546200056e565b8462002557565b602080601f831160011462002623575081906200261393949560009262002617575b50506000198260011b9260031b1c19161790565b9055565b015190503880620025ff565b90601f198316956200263a85600052602060002090565b926000905b8882106200267a5750508360019596971062002660575b505050811b019055565b015160001960f88460031b161c1916905538808062002656565b806001859682949686015181550195019301906200263f565b9073ffffffffffffffffffffffffffffffffffffffff620026c260209295949560408552604085019062000691565b9416910152565b9190608093620026ea6200199b929897969860a0865260a086019062000691565b9073ffffffffffffffffffffffffffffffffffffffff8094166020860152848203604086015262000691565b60405190620027258262000388565b60006020838281520152565b6200273b62002716565b50602081519160405192620027508462000388565b835201602082015290565b805190620027866200276d8362000423565b926200277d6040519485620003df565b80845262000423565b90602080840190601f198094013683378083015192519291935b81841015620027f157506000199280620027c5575b5050518251821691191617905290565b908092935003908111620018c457620027e2620027e89162002841565b62002822565b903880620027b5565b92919384518152818101809111620018c45793818101809111620018c45791838101908111620018c45792620027a0565b906000198201918211620018c457565b6020039060208211620018c457565b601f8111620018c4576101000a90565b9062000f4091620028b8565b908160031b917f1fffffffffffffffffffffffffffffffffffffffffffffffffffffffffffffff811603620018c457565b60ff8111620018c4576001901b90565b81810392916000138015828513169184121617620018c457565b9190825192815184811062002989575b506020808201519481840151906000965b818810620028f65750505050620004a0929350519051906200289e565b80518351908181036200292f575b505062002920620029196200292792620023ee565b93620023ee565b97620023ee565b9691620028d9565b60001986851062002953575b91821691168181146200290457039750505050505050565b5062002982620027e26200297c620029768d620029708962002832565b6200241b565b6200285d565b6200288e565b196200293b565b935038620028c8565b906200299d62002716565b50815190805191828110620023015760019260208501938451826020860151808303620029fb575b505050620029d5575b5050505090565b8103908111620018c457835251908051918201809211620018c4575238808080620029ce565b8192935020912014388281620029c5565b62002a1e620004a09260209262002334565b604051938162002a388693518092868087019101620004a9565b820162002a4e82518093868085019101620004a9565b01038084520182620003df565b9073ffffffffffffffffffffffffffffffffffffff0073ffffffffffffffffffffffffffffffffffffffff83169260081b16918083046101001490151715620018c457565b9073fffffffffffffffffffffffffffffffffffffff073ffffffffffffffffffffffffffffffffffffffff83169260041b169180830460101490151715620018c457565b9081518110156200190a570160200190565b907fffffffffffffffffffffffffffffffffffffffffffffffffffffffffffffffd073ffffffffffffffffffffffffffffffffffffffff80931601918211620018c457565b907fffffffffffffffffffffffffffffffffffffffffffffffffffffffffffffffc973ffffffffffffffffffffffffffffffffffffffff80931601918211620018c457565b907fffffffffffffffffffffffffffffffffffffffffffffffffffffffffffffffa973ffffffffffffffffffffffffffffffffffffffff80931601918211620018c457565b91909173ffffffffffffffffffffffffffffffffffffffff80809416911601918211620018c457565b60006002915b602a831062002c19575073ffffffffffffffffffffffffffffffffffffffff91501690565b9062002d1162002c2d62002d189262002a5b565b62002d0a62002c7b62002c7562002c6f62002c49898962002ae4565b517fff000000000000000000000000000000000000000000000000000000000000001690565b60f81c90565b60ff1690565b62002c9d62002c7562002c6f62002c4962002c968b6200240c565b8a62002ae4565b9073ffffffffffffffffffffffffffffffffffffffff90606190828116828110158062002e01575b1562002da0575062002cd79062002b80565b915b8316908110158062002d94575b1562002d2057509062002cfd62002d049162002b80565b9162002aa0565b62002bc5565b9062002bc5565b92620023fd565b919062002bf4565b60418110158062002d88575b1562002d4357509062002cfd62002d049162002b3b565b6030811015908162002d7b575b5062002d62575b62002d049062002aa0565b9062002d7262002d049162002af6565b91905062002d57565b6039915011153862002d50565b50604681111562002d2c565b50606681111562002ce6565b60418110158062002df5575b1562002dc5575062002dbe9062002b3b565b9162002cd9565b6030819492941015908162002de8575b501562002cd9579162002dbe9062002af6565b6039915011153862002dd5565b50604681111562002dac565b50606681111562002cc5565b601481510362002e6f5760208151910151907fffffffffffffffffffffffffffffffffffffffff00000000000000000000000091828116916014811062002e59575b5050905060601c90565b8391925060140360031b1b161680388062002e4f565b606460405162461bcd60e51b815260206004820152601060248201527f496e76616c696420616464726573732e000000000000000000000000000000006044820152fd5b81601f82011215620004a357805162002ecc8162000423565b9262002edc6040519485620003df565b818452602082840101116200047c57620004a09160208085019101620004a9565b608460405162461bcd60e51b815260206004820152602360248201527f414249206465636f64696e673a20696e76616c696420737472756374206f666660448201527f73657400000000000000000000000000000000000000000000000000000000006064820152fd5b604080519062002f7782620003a5565b60609283835283826020948286820152015280518101928084019480838603126200077157818301519467ffffffffffffffff958681116200076b57878462002fc39287010162002eb3565b96858501518781116200076b57818562002fe09288010162002eb3565b9483810151908882116200076b57019281603f85011215620004a35784840151926200300c8462001801565b986200301b89519a8b620003df565b848a5288878b019560051b8701019584871162000a1757898101955b8787106200305d5750505050505050506200305162000403565b94855284015282015290565b8651838111620004a35782018b601f198287030112620030c2578b5191620030858362000388565b8c82015192858411620030bc5787838f8b8f9791620030a8928998010162002eb3565b835201518382015281520196019562003037565b62002efd565b60848a8d519062461bcd60e51b82526004820152602360248201527f414249206465636f64696e673a20737472756374206461746120746f6f20736860448201527f6f727400000000000000000000000000000000000000000000000000000000006064820152fd5b91909162003142826200139b620023c4846200051e565b54938403938411620018c457620023eb926200071f6200139b926200051e565b606460405162461bcd60e51b815260206004820152601e60248201527f496e76616c69642063616c6c64617461206163636573732073747269646500006044820152fd5b90357fffffffffffffffffffffffffffffffffffffffffffffffffffffffffffffffe1823603018112156200324357016020813591019167ffffffffffffffff8211620031ff578136038313620031f957565b62003162565b606460405162461bcd60e51b815260206004820152601e60248201527f496e76616c69642063616c6c6461746120616363657373206c656e67746800006044820152fd5b606460405162461bcd60e51b815260206004820152601e60248201527f496e76616c69642063616c6c6461746120616363657373206f666673657400006044820152fd5b602090620032af8267ffffffffffffffff9283620032a582620014b6565b16865201620014b6565b16910152565b906000809160405180946200344360208301937fbd950f890000000000000000000000000000000000000000000000000000000085526040602485015262003313606485016200330585620014b6565b67ffffffffffffffff169052565b6200342662003414610100620033f987620033d8620033b862003398620033566200334260208d018d620031a6565b610120608488015261018487019162001a10565b6200336560408d018d620031a6565b907fffffffffffffffffffffffffffffffffffffffffffffffffffffffffffffff9c9660a4888286030191015262001a10565b620033a760608c018c620031a6565b8d8303860160c48f01529062001a10565b620033c760808b018b620031a6565b8c8303850160e48e01529062001a10565b90620033e860a08a018a620031a6565b918b8403016101048c015262001a10565b956200340d610124890160c0830162003287565b01620014b6565b67ffffffffffffffff16610164860152565b73ffffffffffffffffffffffffffffffffffffffff166044840152565b039362003459601f1995868101835282620003df565b519082305af16200346962002224565b5015620034b2576040517f0100000000000000000000000000000000000000000000000000000000000000602082015290620004a09082602181015b03908101835282620003df565b6040516000602082015290620004a0908260218101620034a5565b3373ffffffffffffffffffffffffffffffffffffffff7f000000000000000000000000000000000000000000000000000000000000000016036200350d57565b608460405162461bcd60e51b815260206004820152602960248201527f5f636865636b4942433a2063616c6c6572206973206e6f74207468652049424360448201527f20636f6e747261637400000000000000000000000000000000000000000000006064820152fd5b90156200190a5790565b92919262003590845162002e0d565b90600092835b604090818801518051821015620037455781620035b39162001910565b519173ffffffffffffffffffffffffffffffffffffffff9283620035dc620011188351620004f6565b169384156200368057506020015190833b15620010bd57517f40c10f1900000000000000000000000000000000000000000000000000000000815273ffffffffffffffffffffffffffffffffffffffff8716600482015260248101919091529186908390604490829084905af1918215620010b757620036639262003669575b50620018b4565b62003596565b806200121262003679926200036d565b386200365c565b9350906200368f825162002bee565b93602080930194620036a5865182898b6200312b565b16935190843b15620010bd57517fa9059cbb00000000000000000000000000000000000000000000000000000000815273ffffffffffffffffffffffffffffffffffffffff881660048201526024810191909152928190849060449082908b905af1928315620010b757620036639362003722575b5050620018b4565b816200373c92903d10620010af576200109e8183620003df565b5038806200371a565b505050505050509050565b92620037829291949362003763620034cd565b85604051968792833781016002815260209687910301902091620017b6565b916200378f828062002475565b9067ffffffffffffffff82116200038257620037b882620037b187546200056e565b8762002557565b600090601f83116001146200381a5792620037f8836200380494600197946200041299976000926200380e5750506000198260011b9260031b1c19161790565b84555b81019062002475565b9290910162003898565b013590503880620025ff565b601f198316916200383087600052602060002090565b92815b81811062003880575093600196936200041298969388938362003804981062003865575b505050811b018455620037fb565b60001960f88560031b161c1991013516905538808062003857565b91938660018192878701358155019501920162003833565b90929167ffffffffffffffff81116200038257620038bc81620025d684546200056e565b6000601f8211600114620038ef578190620026139394956000926200380e5750506000198260011b9260031b1c19161790565b601f198216946200390584600052602060002090565b91805b878110620039425750836001959697106200392757505050811b019055565b60001960f88560031b161c1991013516905538808062002656565b9092602060018192868601358155019401910162003908565b916200399590959391949562003970620034cd565b85604051968795863784019260028452600196879460209687910301902091620017b6565b019367ffffffffffffffff83116200038257620039b883620037b187546200056e565b600091601f8411600114620039ec575062002613935060009190836200380e5750506000198260011b9260031b1c19161790565b9183601f19811662003a0388600052602060002090565b9483905b8883831062003a2357505050106200392757505050811b019055565b86860135885590960195938401938793509081019062003a0756fe608060409080825234620004a3575062001391803803806200002181620004f0565b92833981016020918281830312620004545780516001600160401b039182821162000405570191601f818185011215620003ad5783518381116200025557601f19946200007482840187168801620004f0565b938285528783830101116200035957869060005b838110620003445750506000918401015281519083821162000255576003928354926001938481811c9116801562000339575b898210146200032357838111620002d8575b50808884821160011462000277576000916200026b575b5060001982871b1c191690841b1784555b8051948511620002555760049687548481811c911680156200024a575b828210146200023557838111620001ea575b50809286116001146200017e57508495509084929160009562000172575b50501b92600019911b1c19161790555b600580546001600160a01b0319163317905551610e7a9081620005178239f35b01519350388062000142565b939295859081168860005285600020956000905b89838310620001cf5750505010620001b4575b50505050811b01905562000152565b01519060f884600019921b161c1916905538808080620001a5565b85870151895590970196948501948893509081019062000192565b88600052816000208480890160051c820192848a106200022b575b0160051c019085905b8281106200021e57505062000124565b600081550185906200020e565b9250819262000205565b602289634e487b7160e01b6000525260246000fd5b90607f169062000112565b634e487b7160e01b600052604160045260246000fd5b905082015138620000e4565b8886931690876000528a6000209160005b8c828210620002c15750508311620002a8575b5050811b018455620000f5565b84015160001983891b60f8161c1916905538806200029b565b838801518555899690940193928301920162000288565b85600052886000208480840160051c8201928b851062000319575b0160051c019085905b8281106200030c575050620000cd565b60008155018590620002fc565b92508192620002f3565b634e487b7160e01b600052602260045260246000fd5b90607f1690620000bb565b81810183015186820184015288920162000088565b875162461bcd60e51b815260048101889052602760248201527f414249206465636f64696e673a20696e76616c69642062797465206172726179604482015266040d8cadccee8d60cb1b6064820152608490fd5b855162461bcd60e51b815260048101869052602b60248201527f414249206465636f64696e673a20696e76616c69642063616c6c64617461206160448201526a1c9c985e481bd9999cd95d60aa1b6064820152608490fd5b855162461bcd60e51b815260048101869052602260248201527f414249206465636f64696e673a20696e76616c6964207475706c65206f666673604482015261195d60f21b6064820152608490fd5b835162461bcd60e51b815260048101849052602260248201527f414249206465636f64696e673a207475706c65206461746120746f6f2073686f6044820152611c9d60f21b6064820152608490fd5b62461bcd60e51b815260206004820152602260248201527f45746865722073656e7420746f206e6f6e2d70617961626c652066756e63746960448201526137b760f11b6064820152608490fd5b6040519190601f01601f191682016001600160401b03811183821017620002555760405256fe604060808152600480361015610078575b6020608492519162461bcd60e51b8352820152603560248201527f436f6e747261637420646f6573206e6f7420686176652066616c6c6261636b2060448201527f6e6f7220726563656976652066756e6374696f6e7300000000000000000000006064820152fd5b6000803560e01c806306fdde031461086e578063095ea7b31461084557806318160ddd1461082757806323b872dd14610732578063313ce5671461071757806339509351146106bb57806340c10f19146105e057806370a082311461059d57806395d89b411461041f5780639dc29fac146102ab578063a457c2d7146101e2578063a9059cbb146101b2578063dd62ed3e1461015c5763f851a4401461011e5750610010565b905034610157576003193601126101525760209073ffffffffffffffffffffffffffffffffffffffff600554169051908152f35b6109be565b610954565b5082346101575780600319360112610152578060209261017a610a70565b610182610a98565b73ffffffffffffffffffffffffffffffffffffffff91821683526001865283832091168252845220549051908152f35b83346101575780600319360112610152576020906101db6101d1610a70565b6024359033610af7565b5160018152f35b50346101575782600319360112610152576101fb610a70565b918360243592338152600160205281812073ffffffffffffffffffffffffffffffffffffffff86168252602052205490828210610242576020856101db8585038733610cb8565b608490602086519162461bcd60e51b8352820152602560248201527f45524332303a2064656372656173656420616c6c6f77616e63652062656c6f7760448201527f207a65726f0000000000000000000000000000000000000000000000000000006064820152fd5b5090346101575782600319360112610152576102c5610a70565b6024359073ffffffffffffffffffffffffffffffffffffffff906102ee82600554163314610df9565b169182156103b65782845283602052848420549082821061034d57508184957fddf252ad1be2c89b69c2b068fc378daa952ba7f163c4a11628f55a4df523b3ef936020938688528785520381872055816002540360025551908152a380f35b608490602087519162461bcd60e51b8352820152602260248201527f45524332303a206275726e20616d6f756e7420657863656564732062616c616e60448201527f63650000000000000000000000000000000000000000000000000000000000006064820152fd5b608490602086519162461bcd60e51b8352820152602160248201527f45524332303a206275726e2066726f6d20746865207a65726f2061646472657360448201527f73000000000000000000000000000000000000000000000000000000000000006064820152fd5b508234610157578160031936011261015257805190828454600181811c90808316928315610593575b602093848410811461056757838852879594939291811561052a57506001146104cc575b50505003601f01601f191682019267ffffffffffffffff8411838510176104a0575082918261049c925282610a28565b0390f35b806041867f4e487b71000000000000000000000000000000000000000000000000000000006024945252fd5b8888529193925086917f8a35acfbc15ff81a39ae7d344fd709f28e8600b4aa8c65c6b64bfe7fe36bd19b5b8284106105145750505090601f1992601f9282010191819361046c565b80548885018701528794509285019281016104f7565b7fffffffffffffffffffffffffffffffffffffffffffffffffffffffffffffff0016848701525050151560051b830101905081601f601f1961046c565b60248960228c7f4e487b7100000000000000000000000000000000000000000000000000000000835252fd5b91607f1691610448565b508234610157576020600319360112610152578060209273ffffffffffffffffffffffffffffffffffffffff6105d1610a70565b16815280845220549051908152f35b5091346101575780600319360112610152576105fa610a70565b906024359173ffffffffffffffffffffffffffffffffffffffff9061062482600554163314610df9565b1692831561067957506020827fddf252ad1be2c89b69c2b068fc378daa952ba7f163c4a11628f55a4df523b3ef9261065f8795600254610abb565b60025585855284835280852082815401905551908152a380f35b6020606492519162461bcd60e51b8352820152601f60248201527f45524332303a206d696e7420746f20746865207a65726f2061646472657373006044820152fd5b5082346101575780600319360112610152576101db6020926107106106de610a70565b913381526001865284812073ffffffffffffffffffffffffffffffffffffffff84168252865284602435912054610abb565b9033610cb8565b83823461015757600319360112610152576020905160128152f35b5090346101575760606003193601126101525761074d610a70565b610755610a98565b91846044359473ffffffffffffffffffffffffffffffffffffffff8416815260016020528181203382526020522054907fffffffffffffffffffffffffffffffffffffffffffffffffffffffffffffffff82036107bb575b6020866101db878787610af7565b8482106107e457509183916107d9602096956101db95033383610cb8565b9193948193506107ad565b606490602087519162461bcd60e51b8352820152601d60248201527f45524332303a20696e73756666696369656e7420616c6c6f77616e63650000006044820152fd5b83823461015757600319360112610152576020906002549051908152f35b83346101575780600319360112610152576020906101db610864610a70565b6024359033610cb8565b50823461095457816003193601126101525780519082600354600181811c9080831692831561094a575b602093848410811461056757838852879594939291811561052a57506001146108eb5750505003601f01601f191682019267ffffffffffffffff8411838510176104a0575082918261049c925282610a28565b600388529193925086917fc2575a0e9e593c00f959f8c92f12db2869c3395a3b0502d05e2516446f71f85b5b8284106109345750505090601f1992601f9282010191819361046c565b8054888501870152879450928501928101610917565b91607f1691610898565b608460405162461bcd60e51b815260206004820152602260248201527f45746865722073656e7420746f206e6f6e2d70617961626c652066756e63746960448201527f6f6e0000000000000000000000000000000000000000000000000000000000006064820152fd5b608460405162461bcd60e51b815260206004820152602260248201527f414249206465636f64696e673a207475706c65206461746120746f6f2073686f60448201527f72740000000000000000000000000000000000000000000000000000000000006064820152fd5b60208082528251818301819052939260005b858110610a5c57505050601f19601f8460006040809697860101520116010190565b818101830151848201604001528201610a3a565b6004359073ffffffffffffffffffffffffffffffffffffffff82168203610a9357565b600080fd5b6024359073ffffffffffffffffffffffffffffffffffffffff82168203610a9357565b91908201809211610ac857565b7f4e487b7100000000000000000000000000000000000000000000000000000000600052601160045260246000fd5b73ffffffffffffffffffffffffffffffffffffffff809116918215610c4e5716918215610be457600082815280602052604081205491808310610b7a57604082827fddf252ad1be2c89b69c2b068fc378daa952ba7f163c4a11628f55a4df523b3ef958760209652828652038282205586815220818154019055604051908152a3565b608460405162461bcd60e51b815260206004820152602660248201527f45524332303a207472616e7366657220616d6f756e742065786365656473206260448201527f616c616e636500000000000000000000000000000000000000000000000000006064820152fd5b608460405162461bcd60e51b815260206004820152602360248201527f45524332303a207472616e7366657220746f20746865207a65726f206164647260448201527f65737300000000000000000000000000000000000000000000000000000000006064820152fd5b608460405162461bcd60e51b815260206004820152602560248201527f45524332303a207472616e736665722066726f6d20746865207a65726f20616460448201527f64726573730000000000000000000000000000000000000000000000000000006064820152fd5b73ffffffffffffffffffffffffffffffffffffffff809116918215610d905716918215610d265760207f8c5be1e5ebec7d5bd14f71427d1e84f3dd0314c0f7b2291e5b200ac8c7c3b925918360005260018252604060002085600052825280604060002055604051908152a3565b608460405162461bcd60e51b815260206004820152602260248201527f45524332303a20617070726f766520746f20746865207a65726f20616464726560448201527f73730000000000000000000000000000000000000000000000000000000000006064820152fd5b608460405162461bcd60e51b8152602060048201526024808201527f45524332303a20617070726f76652066726f6d20746865207a65726f2061646460448201527f72657373000000000000000000000000000000000000000000000000000000006064820152fd5b15610e0057565b606460405162461bcd60e51b815260206004820152600a60248201527f6f6e6c792061646d696e000000000000000000000000000000000000000000006044820152fdfea2646970667358221220254a11568049d54f9aeb34091193ee508361af4b270233db585c99142b45f97564736f6c63430008150033a264697066735822122094b56b5fa309dc6dc0382c6bca158c5502fc48def67b2487304dafc86b83334064736f6c63430008150033",
    "linkReferences": {}
  },
  "methodIdentifiers": {
    "addressToDenom(address)": "95469df8",
    "counterpartyEndpoints(string,string)": "06d8af32",
    "denomToAddress(string)": "4020d0ed",
    "ibcAddress()": "696a9bf4",
    "onAcknowledgementPacket((uint64,string,string,string,string,bytes,(uint64,uint64),uint64),bytes,address)": "fb8b532e",
    "onChanCloseConfirm(string,string)": "ef4776d2",
    "onChanCloseInit(string,string)": "e74a1ac2",
    "onChanOpenAck(string,string,string,string)": "4f01e52e",
    "onChanOpenConfirm(string,string)": "a113e411",
    "onChanOpenInit(uint8,string[],string,string,(string,string),string)": "44dd9638",
    "onChanOpenTry(uint8,string[],string,string,(string,string),string,string)": "981389f2",
    "onRecvPacket((uint64,string,string,string,string,bytes,(uint64,uint64),uint64),address)": "2301c6f5",
    "onRecvPacketProcessing((uint64,string,string,string,string,bytes,(uint64,uint64),uint64),address)": "bd950f89",
    "onTimeoutPacket((uint64,string,string,string,string,bytes,(uint64,uint64),uint64),address)": "52c7157d",
    "outstanding(string,string,address)": "d7c83be5",
    "send(string,string,bytes,(address,uint128)[],uint64,uint64)": "f62d2bcc"
  },
  "id": 37
}